:020000040800F2
:10000000401B0020ED0100086D3A00084134000853
:10001000693A00089D040008394900080000000002
:10002000000000000000000000000000DD3A0008B1
:10003000A104000800000000713A0008DF3A00083F
:10004000070200080702000807020008070200086C
:10005000070200080702000807020008070200085C
:10006000070200080702000807020008070200084C
:10007000070200080702000807020008070200083C
:10008000070200080000000007020008070200083D
:10009000070200080702000807020008070200081C
:1000A000070200080702000807020008070200080C
:1000B00007020008070200080702000807020008FC
:1000C00007020008070200080702000807020008EC
:1000D0000702000829490008070200080702000873
:1000E00007020008070200080702000807020008CC
:1000F00007020008070200080702000800000000CD
:1001000000000000070200080000000007020008CD
:1001100007020008000000000702000807020008AC
:10012000070200080702000807020008070200088B
:10013000070200080000000000000000070200089D
:10014000070200080702000800000000000000008D
:10015000000000000000000000000000000000009F
:10016000000000000000000000000000070200087E
:10017000070200080000000000000000000000006E
:10018000000000000702000800000000000000005E
:10019000000000000000000000000000000000005F
:1001A000000000000000000007020008070200082D
:1001B000070200080702000807020008000000000C
:1001C000000000000702000800000000000000001E
:1001D0000702000807020008DFF80CD000F090F8D2
:1001E00000480047094D0008401B00200648804792
:1001F00006480047FEE7FEE7FEE7FEE7FEE7FEE70C
:10020000FEE7FEE7FEE7FEE7753B0008D9010008C0
:100210002DE9F05F0546002092469B46884606463B
:10022000814640241BE0284641464746224600F0CE
:1002300057F853465A46C01A914110D311461846F2
:10024000224600F03EF82D1A67EB01084F46224681
:100250000120002100F035F817EB00094E41201E67
:10026000A4F10104DFDC484631462A464346BDE896
:10027000F09FD2B201E000F8012B491EFBD270477B
:100280000022F6E710B513460A4604461946FFF762
:10029000F0FF204610BD30B50B460146002020225D
:1002A000012409E021FA02F59D4205D303FA02F583
:1002B000491B04FA02F52844151EA2F10102F1DCE3
:1002C00030BD202A04DB203A00FA02F100207047FA
:1002D0009140C2F1200320FA03F319439040704784
:1002E000202A04DB203A21FA02F00021704721FA8B
:1002F00002F3D040C2F120029140084319467047F2
:10030000064C074D06E0E06840F0010394E8070062
:1003100098471034AC42F6D3FFF762FF50800008D4
:100320007080000870B58D1810F8014B14F00302AE
:1003300001D110F8012B231106D110F8013B03E085
:1003400010F8016B01F8016B521EF9D1ABB110F836
:10035000012B04F00C048A1A0C2C03D0A2EB84129B
:100360009B1C08E010F8014BA2EB0422F8E712F8FE
:10037000014B01F8014B5B1EF9D5A942D4D30020F3
:1003800070BD000070B50446206803F076F806469C
:10039000206803F077F898B396BB2068806800F077
:1003A0000D0001280AD1206881681A4A1140891C71
:1003B000816000BF03202168086009E0E06D40F023
:1003C0001000E065206E40F001002066012070BD45
:1003D00001F03CF8054614E001F038F8401B022813
:1003E0000FD92068806800F0010050B1E06D40F046
:1003F0001000E065206E40F0010020660120E6E775
:1004000005E02068806800F001000028E4D10020A9
:10041000DDE70000C0FFFF7F70B50446206803F0F1
:1004200031F8002836D1206880681B49084048B15F
:10043000E06D40F01000E065206E40F001002066A5
:10044000012070BD206802F0FDFF00F0FFFF0546AF
:100450001AE0206803F016F810B9206802F0F2FFE5
:1004600000F0F4FF401B02280ED92068006800F05D
:10047000010048B9E06D40F01000E065206E40F0EA
:10048000010020660120DCE72068006800F0010020
:100490000028DED00020D4E73F00008000BFFEE748
:1004A000704772B600BFFEE7F8B504460D4600205F
:1004B000009000BF94F85800012801D10220F8BD37
:1004C000012084F8580000BF2046FFF75BFF064676
:1004D0008EBBE06D20F4885040F00200E06520689B
:1004E00081681B4A114005F0804242F000421143EE
:1004F000816000BF13E00098401C009015490098EF
:1005000088420CD3E06D20F0020040F01000E0655E
:1005100000BF002084F8580000BF0120CFE720680A
:100520008168C90F0029E6D1E06D20F0020040F09B
:100530000100E06504E0FFE7E06D40F01000E065D9
:1005400000BF002084F8580000BF3046B7E7000025
:10055000C0FFFF3F02DE04002DE9F0439BB00446DC
:100560000E464FF00008306800B100BF00BF94F89D
:100570005800012803D102201BB0BDE8F083012000
:1005800084F8580000BF0020179018902068B0F140
:10059000A04F02D13148009001E000200090009867
:1005A00050B9E06D40F02000E06500BF002084F805
:1005B000580000BF0120DFE7009802F077FF0746F0
:1005C000206802F073FFD8BBD7BB254D306800B35D
:1005D00094F83800716841EA4030A96821F460411C
:1005E0000843A8604FF0A04002F051FF81461B482D
:1005F00002F04DFF49EA0009B9F1000F27D1B168B7
:1006000030680843A96840F61F7291430843A86008
:100610001DE0A86820F46040A8604FF0A04002F000
:1006200036FF81460D4802F032FF49EA0009B9F170
:10063000000F0CD1A86840F61F718843A86006E03F
:10064000FFE7E06D40F02000E0654FF0010800BFDB
:10065000002084F8580000BF40468DE7000100509C
:10066000000300502DE9F84F05460C464FF0000AF4
:1006700000200090FE49E068884200D000E000BF02
:1006800000BF95F85800012802D10220BDE8F88F7C
:10069000012085F8580000BF286802F002FF0028FA
:1006A0007DD12968D4E9002001F1300CC0F3012B81
:1006B0000CEB8B03D3F800C000F01F0E4FF01F0BA4
:1006C0000BFA0EFB2CEA0B0C00F01F0BC2F3846E2E
:1006D0000EFA0BFE4CEA0E0CC3F800C000BF2868EF
:1006E00002F0DFFE8146286802F0C2FE8046B9F1C2
:1006F000000F64D1B8F1000FFBD1A068B0F1004F3A
:100700000AD121680022286802F0E6FE4FF000417D
:10071000286802F006FF08E0A2682168286802F055
:10072000DBFE0021286802F0FCFE60692968C968C8
:10073000C1F3C101490000FA01F7206904283FD044
:1007400028682268216900F1600C0CEB8103D3F862
:1007500000C0DFF820B30CEA0B0C02F0F84B4BF0B2
:10076000004B4BEA070B4CEA0B0CC3F800C000BF70
:100770002868A269216900F1600C0CEB8103D3F8B1
:1007800000C02CF0807C4CEA020CC3F800C000BF13
:100790002868227F2169012A02D1520601E0C6E1C0
:1007A0000022134600F1600C0CEB8102D2F800C06D
:1007B0002CF0007C4CEA030CC2F800C000BFA7E09C
:1007C0000021286802F04BFEC0F3120030B900216E
:1007D000286802F044FEC0F3846007E00021286826
:1007E00002F03DFE90FAA0F0B0FA80F02168C1F36B
:1007F000120119B92168C1F3846104E0216891FAFA
:10080000A1F1B1FA81F1884204D100221146286891
:1008100002F07CFE0121286802F021FEC0F31200E4
:1008200030B90121286802F01AFEC0F3846007E0A5
:100830000121286802F013FE90FAA0F0B0FA80F0CF
:100840002168C1F3120119B92168C1F3846104E080
:10085000216891FAA1F1B1FA81F1884204D1002214
:100860000121286802F052FE0221286802F0F7FDFB
:10087000C0F3120030B90221286802F0F0FDC0F385
:10088000846007E00221286802F0E9FD90FAA0F0F8
:10089000B0FA80F02168C1F3120119B92168C1F3DF
:1008A000846104E0216891FAA1F1B1FA81F18842F2
:1008B00004D100220221286802F028FE03212868C2
:1008C00002F0CDFDC0F3120030B90321286802F018
:1008D000C6FDC0F3846007E00321286802F0BFFD75
:1008E00090FAA0F0B0FA80F02168C1F3120119B9B2
:1008F0002168C1F3846104E0216891FAA1F1B1FAA1
:1009000081F1884204D100220321286802F0FEFD13
:10091000286802F0B7FD002872D12868E2682168D3
:10092000D0F8B030C1F3120C23EA0C0302F0180B1C
:10093000DFF844C12CFA0BFC0CEA010C43EA0C036F
:10094000C0F8B03000BF4A49E068884258D12368F7
:10095000C3F312031BB92368C3F3846304E0236861
:1009600093FAA3F3B3FA83F35B1C03F01F03092B81
:100970003ED82368C3F312031BB92368C3F384630F
:1009800004E0236893FAA3F3B3FA83F35B1C03F048
:100990001F034FF0010C0CFA03FC2368C3F312038E
:1009A0001BB92368C3F3846304E0236893FAA3F3B9
:1009B000B3FA83F35B1C03F01F034CEA836C2368D8
:1009C000C3F312031BB92368C3F3846304E02368F1
:1009D00093FAA3F3B3FA83F35B1C03F01F0303EB57
:1009E00043034FF0000B4BEA03534CEA030347E089
:1009F0002368C3F3120323B92368C3F3846305E0B8
:100A000043E0236893FAA3F3B3FA83F35B1C03F088
:100A10001F034FF0010C0CFA03FC2368C3F312030D
:100A20001BB92368C3F3846304E0236893FAA3F338
:100A3000B3FA83F35B1C03F01F034CEA836C236857
:100A4000C3F312031BB92368C3F3846304E0236870
:100A500093FAA3F3B3FA83F35B1C03F01F030A3B7F
:100A600003EB43034FF0007B4BEA035306E0000027
:100A700000007F4000F0FF03FFFF07004CEA030384
:100A80001946A268286802F027FD2F49206808400F
:100A900050B300BF2D48806800F0E07600BF2C49BD
:100AA0002068884203D02B49206888421DD106F473
:100AB0000000D0B92868B0F1A04F3ED146F4000143
:100AC000224802F01DFD244800682449B0FBF1F0E3
:100AD000401C00EB40008000009002E00098401EA7
:100AE000009000980028F9D127E01D49206888422D
:100AF0000CD106F0807048B91A49286888421CD089
:100B000046F08071114802F0FBFC16E0164920689F
:100B1000884212D106F4800078B9124928688842C8
:100B20000BD046F48001094802F0EAFC05E0E86DCC
:100B300040F02000E8654FF0010A00BF002085F872
:100B4000580000BF5046A1E5000008800003005097
:100B5000000021C31000C090EC110020400D0300E4
:100B6000000052C700010050000084CB0146086815
:100B7000006C70472DE9F84F04464FF00009002043
:100B8000009014B90120BDE8F88F606920B194F895
:100B90002400012800D100BFE06D30B9204600F0EC
:100BA0001DF90020206684F8580020688168C1F390
:100BB000407131B120688168814A1140816000BF75
:100BC00000BF206802F068FCB0B9206881687D4AE7
:100BD000114041F08051816000BF7B4800687B4933
:100BE000B0FBF1F0401C4000009002E00098401E75
:100BF000009000980028F9D1206802F04DFC48B917
:100C0000E06D40F01000E065206E40F001002066CD
:100C10004FF00109206802F044FC0646E06D00F048
:100C2000100000287CD1002EFCD1E06D20F48070F3
:100C300040F00200E065206802F024FCB0B94FF0FB
:100C4000A04002F01FFC8246614802F01BFC4AEA09
:100C5000000ABAF1000F09D160685E49896821F481
:100C60007C1101435B4A916000BF00BF607FE16B74
:100C700041EA4030E1680843A168084394F8241031
:100C800040EA014594F82400012803D1208D401E3C
:100C900045EA4045E06A28B1A08D00F47870216BE8
:100CA000084305432068C0684B4908402843216831
:100CB000C8602068006920F04060616B08432168CB
:100CC0000861206802F0EDFB8046206802F0D0FB4E
:100CD0000746B8F1000F50D1F7BB207F002141EA51
:100CE000803194F8380041EA40052068C06844F239
:100CF0000201884328432168C860206988B12068C0
:100D0000006940F48030216808612068D0F8C00094
:100D10006FF30D00216908432168C1F8C0000EE09F
:100D200045E02068006920F480302168086120686F
:100D3000D0F8C0006FF30D002168C1F8C00094F82E
:100D40004000012813D1606C40F00101A06C084301
:100D5000E16C0843216D00E00FE008432168096958
:100D600040F2FC72914308432168086105E0206865
:100D7000006920F00100216808616069012809D13B
:100D80002068006B20F00F00216A491E084321688B
:100D9000086305E02068006B20F00F0021680863FD
:100DA000E06D20F0020040F00100E06505E0E06D3C
:100DB00040F01000E0654FF001094846E3E600000E
:100DC000C0FFFF5FC0FFFF7FEC110020400D03005C
:100DD00000010050000300500740F0FF10B586B03E
:100DE0000446142101A8FFF74BFA2068B0F1A04F88
:100DF00030D133480068401C31490860084600681B
:100E000001280DD100BF2F48C06C40F400502D497F
:100E1000C8640846C06C00F40050009000BF00BFDA
:100E200000BF2848C06C40F002002649C86408464C
:100E3000C06C00F00200009000BF00BF4FF4A04063
:100E40000190032002900020039001A91E4800F0A9
:100E500003FA33E01D49206888422FD11848006802
:100E6000401C174908600846006801280DD100BFE2
:100E70001448C06C40F400501249C8640846C06C65
:100E800000F40050009000BF00BF00BF0D48C06CD0
:100E900040F002000B49C8640846C06C00F0020034
:100EA000009000BF00BF4FF400400190032002906B
:100EB0000020039001A9044800F0CEF906B010BD4F
:100EC0000C00002000100240000400480001005007
:100ED0002DE9F04704460F46494802F0BBFA0646A2
:100EE000A069082801D108251FE01EB1052E01D0F8
:100EF000092E0DD12068C06800F0010030B1E06D0E
:100F000040F02000E0650120BDE8F08704250CE0FA
:100F100000BF3B48806800F4604028B1E06D40F0BD
:100F20002000E0650120EFE7042500F08FFA8046FD
:100F300017E0781CA8B100F089FAA0EB0800B842CD
:100F400000D877B920680068284050B9E06D40F0BB
:100F50000400E06500BF002084F8580000BF0320B3
:100F6000D2E72068006828400028E2D0E06D40F415
:100F70000070E065206802F09EFA98B1607F88B941
:100F80002068006800F0080008280BD1E06D20F40C
:100F90008070E065E06D00F4805018B9E06D40F0BD
:100FA0000100E06517492068884202D14FF0A04057
:100FB00000E020682168884204D01EB1052E01D0CF
:100FC000092E03D12068D0F80C900AE00D49206862
:100FD000884202D14FF0A04000E020688246DAF853
:100FE0000C90082D03D108202168086005E009F461
:100FF000804010B90C2021680860002084E70000C0
:1010000000030050000100502DE9F0410446434820
:1010100002F020FA0646206802F043FA00287AD14E
:1010200000BF94F85800012802D10220BDE8F081E9
:10103000012084F8580000BF2046FFF7EDF905466F
:10104000002D63D1E06D40F60161884340F480706B
:10105000E06533492068884202D14FF0A04000E0AB
:1010600020682168884200D01EB9E06D20F480100D
:10107000E065E06D00F48050B0F5805F04D1206E33
:1010800020F00600206601E0002020661C20216878
:10109000086000BF002084F8580000BF2049206885
:1010A000884202D14FF0A04000E0206821688842C9
:1010B00004D01EB1052E01D0092E0ED12068C068C3
:1010C00000F0007028B1E06D20F4005040F4805032
:1010D000E065206802F0F8F91EE0E06D40F4801051
:1010E000E0650F492068884202D14FF0A04000E03F
:1010F00020680746F86800F0007068B1E06D20F4E1
:10110000005040F48050E06506E004E000BF00209D
:1011100084F8580000E00225284687E700030050C5
:10112000000100500146002091F82520022A03D03A
:101130000422CA63012027E00A68126822F00E0226
:101140000B681A608A6C126822F480728B6C1A60C9
:101150000A68126822F001020B681A6091F84420B4
:1011600002F01F0301229A400B6C5A60D1E913323E
:101170005A604A6D42B14A6D126822F480724B6D1A
:101180001A60D1E916325A60012281F8252000BF89
:10119000002281F8242000BF704770B50446002566
:1011A00094F8250002280BD00420E063012084F885
:1011B000250000BF002084F8240000BF012534E092
:1011C0002068006820F00E00216808602068006830
:1011D00020F0010021680860A06C006820F4807095
:1011E000A16C086094F8440000F01F0101208840C1
:1011F000216C4860D4E913104860606D40B1606DA7
:10120000006820F48070616D0860D4E916104860B1
:10121000012084F8250000BF002084F8240000BFCE
:10122000A06B10B12046A16B8847284670BD000016
:1012300070B5044600F00AF906462546681C10B150
:1012400004480068054400BF00F000F9801BA84274
:10125000FAD370BDE811002078B503460022D0E033
:10126000012696400D6805EA0604002C72D04D68F0
:10127000012D08D04D68022D05D04D68112D02D0EA
:101280004D68122D13D1986856000325B540A84328
:101290005600CD68B54028439860586801259540B0
:1012A000A8430D79C5F30015954028435860D868C8
:1012B00056000325B540A84356008D68B540284325
:1012C000D8604D68022D02D04D68122D13D1D6087A
:1012D00003F1200555F826005507EE0E0F25B54001
:1012E000A8435607F60E0D69B5402843D60803F10A
:1012F000200545F82600186856000325B540A84388
:101300000D7905F003055600B540284318604D6877
:1013100005F08055B5F1805F72D100BF3C4D2D6E58
:1013200045F001053A4E356635462D6E05F001054E
:10133000009500BF00BF4FEAB635960855F8260065
:1013400095072E0F0F25B540A843B3F1904F02D15A
:1013500000251AE054E02F4DAB4201D1012514E0E5
:101360002D4DAB4201D102250FE02C4DAB4201D1F6
:1013700003250AE02A4DAB4201D1042505E0294DA1
:10138000AB4201D1052500E006259607360FB54092
:101390002843254D960845F82600244D2868A0438B
:1013A0004D6805F48035B5F5803F00D120431F4DD1
:1013B00028602D1D2868A0434D6805F40035B5F55B
:1013C000003F00D12043194D2D1D28602D1D286898
:1013D000A0434D6805F48015B5F5801F00D120436A
:1013E000124D083528602D1D2868A0434D6805F46E
:1013F0000015B5F5001F00D120430C4D0C352860B9
:10140000521C0D68D540002D7FF42AAF78BD000036
:10141000001002400004004800080048000C00488A
:10142000001000480014004808000140000401407A
:10143000024613690B400BB1012000E00020704709
:101440000AB1816100E081627047000001480068D4
:1014500070470000E0110020034800680349096854
:101460000844014908607047E0110020E81100209D
:1014700010B50024032000F0ABF8002000F008F8BD
:1014800008B1012401E000F02FF8204610BD000053
:1014900070B50446002511480068D8B10F480068AF
:1014A0004FF47A71B1FBF0F00D490968B1FBF0F629
:1014B000304600F02BFF58B9102C07D200222146ED
:1014C000501E00F047F80748046004E0012502E0E0
:1014D000012500E00125284670BD0000E81100202C
:1014E000EC110020E411002008B500BF0E48006E8A
:1014F00040F001000C4908660846006E00F001004B
:10150000009000BF00BF00BF0846806D40F08050D3
:1015100088650846806D00F08050009000BF00BFD5
:1015200000F0F6F808BD0000001002400146084631
:1015300000280DDB00BF00BF00F01F0301229A400E
:1015400043099B0003F1E023C3F8002100BF00BF63
:1015500000BF70472DE9F05F80460D46164603F048
:1015600001FA074639462A46334601F00700C0F122
:10157000070ABAF1040F02D94FF0040A01E0C0F1E2
:10158000070AD14600F1040ABAF1070F02D24FF060
:10159000000A01E0A0F1030AD4464FF0010A0AFA5A
:1015A00009FAAAF1010A0AEA020A0AFA0CFA4FF049
:1015B000010B0BFA0CFBABF1010B0BEA030B4AEA34
:1015C0000B042146404603F0D5F9BDE8F09F00002A
:1015D00000BF00F00702064B19684FF6FF031940E1
:1015E000044B0B4343EA0221014B196000BF7047D3
:1015F0000CED00E00000FA0502468ABB4148006895
:1016000000F4C060B0F5806F2BD13E488030006898
:1016100020F480703B4BC3F880001846006820F42B
:10162000C06040F4007018603748006832235843A7
:10163000364BB0FBF3F0411C00E0491E31484069D5
:1016400000F48060B0F5806F01D10029F5D12D48FC
:10165000406900F48060B0F5806F51D1032070477D
:1016600008E028488030006820F48070254BC3F8DB
:10167000800045E0B2F5007F3AD12248006800F4CE
:10168000C060B0F5806F2AD11E488030006840F4F9
:1016900080701C4BC3F880001846006820F4C060BE
:1016A00040F4007018601848006832235843174B04
:1016B000B0FBF3F0411C00E0491E1248406900F401
:1016C0008060B0F5806F01D10029F5D10D484069E7
:1016D00000F48060B0F5806F12D10320BFE70948A5
:1016E0008030006840F48070064BC3F8800007E04B
:1016F0000448006820F4C06040F48060014B18602A
:101700000020ACE700700040EC11002040420F00C8
:101710000348806840F480400149886070470000B9
:10172000007000402DE9F84304460027B8462068C1
:1017300000F40020B0F5002F73D1B946D348806D76
:1017400000F0805078B900BFD048806D40F08050E4
:10175000CE4988650846806D00F08050009000BF3B
:1017600000BF4FF00109CA48006840F48070C849C2
:101770000860FFF76BFE064606E0FFF767FE801B7A
:10178000022801D9032705E0C148006800F48070F1
:101790000028F2D000BF002F46D1BC48903000682E
:1017A00000F44075CDB1206CA84216D0B7489030F7
:1017B000006820F44075B548D0F8900040F48030BF
:1017C000B249C1F890000846D0F8900020F480306B
:1017D000C1F890000846C0F8905005F00100A0B193
:1017E000FFF734FE064608E0FFF730FE801B41F2AB
:1017F0008831884201D9032706E0A4489030006868
:1018000000F002000028EFD000BF5FB99F48903081
:10181000006820F44070216C08439C49C1F8900096
:1018200003E00CE0B84600E0B846B9F1010F05D17D
:101830009648806D20F080509449886500BF2078DC
:1018400000F0010048B191488830006820F00300A2
:10185000616808438D49C1F88800207800F00200D3
:10186000022809D189488830006820F00C00A1685E
:1018700008438649C1F88800207800F00400042855
:1018800009D182488830006820F03000E1680843C0
:101890007E49C1F88800207800F00800082809D1A6
:1018A0007A488830006820F0C000216908437749F1
:1018B000C1F88800207800F02000202809D1734862
:1018C0008830006820F44060616908436F49C1F8BE
:1018D0008800207800F04000402809D16B4888300B
:1018E000006820F44050A16908436849C1F88800A5
:1018F000207800F08000802809D164488830006892
:1019000020F44040E16908436049C1F8880020881C
:1019100000F48070B0F5807F09D15C4888300068A1
:1019200020F44030216A08435849C1F888002088D3
:1019300000F40070B0F5007F09D154488830006889
:1019400020F44020616A08435049C1F8880020888B
:1019500000F48060B0F5806F13D14C488830006887
:1019600020F44010A16A0843484988310860A06A01
:10197000B0F5801F05D14548C06840F48010434948
:10198000C860208800F40060B0F5006F13D13F48B4
:101990008830006820F44000E16A08433B49883100
:1019A0000860E06AB0F5800F05D13848C06840F49F
:1019B00080103649C860208800F48050B0F5805F00
:1019C00013D132488830006820F04070216B084302
:1019D0002E4988310860206BB0F1807F05D12B48FB
:1019E000C06840F480102949C860208800F4005085
:1019F000B0F5005F13D125488830006820F04060C2
:101A0000616B0843214988310860606BB0F1006F59
:101A100005D11E48C06840F480101C49C860208869
:101A200000F48040B0F5804F13D11848883000682A
:101A300020F04060A16B0843144988310860A06B16
:101A4000B0F1006F05D11148C06840F480100F4913
:101A5000C860208800F40040B0F5004F13D10B4857
:101A60008830006820F04050E16B08430749883116
:101A70000860E06BB0F1805F05D10448C06840F4B5
:101A800080300249C8604046BDE8F883001002403B
:101A9000007000402DE9F04104460D464FF000086B
:101AA00014B90120BDE8F0817D48006800F00F0006
:101AB000A8420ED27A48006820F00F0028437849E7
:101AC00008600846006800F00F00A84201D001201D
:101AD000E8E7207800F00100002864D0606803285F
:101AE00023D17048006800F0007008B90120D9E7E0
:101AF00001F0C0FF06466C48864237D969488068C5
:101B000000F0F00030B1207800F0020002282DD162
:101B1000A06858BB6348806820F0F00040F0800067
:101B2000604988604FF0800820E06068022806D194
:101B30005C48006800F4003040B90120B2E7594821
:101B4000006800F4806008B90120ABE700F0DEF81F
:101B500006465548864209D95248806820F0F00070
:101B600040F080004F4988604FF080084D48806801
:101B700020F00300616808434A498860FFF766FC6B
:101B8000074608E0FFF762FCC01B41F2883188423B
:101B900001D9032086E74348806800F00C006168A3
:101BA000B0EB810FEED1207800F00200022820D1A6
:101BB000207800F00400042805D13A48806840F4F9
:101BC000E06038498860207800F00800082807D1D4
:101BD0003448806820F4605040F4E0603149886007
:101BE0003048806820F0F000A16808432D498860E3
:101BF00008E0B8F1800F05D12A48806820F0F00095
:101C0000284988602648006800F00F00A84219D9CA
:101C10002348006820F00F00284321490860FFF79F
:101C200015FC074608E0FFF711FCC01B41F28831A4
:101C3000884201D9032035E71948006800F00F00F9
:101C4000A842F0D1207800F00400042807D11548FC
:101C5000806820F4E060E1680843124988602078D9
:101C600000F00800082808D10E48806820F4605071
:101C7000216940EAC1000B49886000F047F8094932
:101C80008968C1F30311094A515C01F01F01C84082
:101C90000749086007480068FFF7FAFB02E7000001
:101CA000002002400010024000B4C4043880000844
:101CB000EC110020E411002001480068704700008A
:101CC000EC11002000B5FFF7F7FF05498968C1F363
:101CD0000221044A515C01F01F01C84000BD000010
:101CE000001002404880000800B5FFF7E5FF0549F5
:101CF0008968C1F3C221044A515C01F01F01C84048
:101D000000BD0000001002404880000870B5224D60
:101D1000AD6805F00C05042D01D120483AE01E4DB8
:101D2000AD6805F00C05082D01D11D4832E01A4DB3
:101D3000AD6805F00C050C2D2BD1174DED6805F0A5
:101D40000304154DED68C5F303156A1C022C0CD075
:101D5000032C09D1124DB5FBF2F50F4EF668C6F310
:101D6000062605FB06F10AE000BF0C4DB5FBF2F5B7
:101D7000094EF668C6F3062605FB06F100BF00BF54
:101D8000054DED68C5F341656D1C6B00B1FBF3F0CB
:101D900000E0002070BD0000001002400024F400AC
:101DA00000366E012DE9F843044614B90120BDE860
:101DB000F883207800F00100002865D0FC48806896
:101DC00000F00C07FA48C06800F003060C2F01D1A0
:101DD000032E01D0082F0AD1F548006800F4003026
:101DE000002851D0606800284ED10120DFE700BFF5
:101DF0006068B0F5803F06D1ED48006840F480305F
:101E0000EB4908601AE06068B0F5A02F0BD1E848F4
:101E1000006840F48020E64908600846006840F405
:101E2000803008600AE0E248006820F48030E04931
:101E300008600846006820F48020086000BF6068E1
:101E400088B1FFF703FB054606E0FFF7FFFA401BEA
:101E5000642801D90320AAE7D548006800F40030BF
:101E60000028F2D010E0FFF7F1FA054606E0FFF790
:101E7000EDFA401B642801D9032098E7CC4800689C
:101E800000F400300028F2D1207800F0020002288F
:101E900060D1C748806800F00C07C548C06800F0F2
:101EA00003060C2F01D1022E01D0042F18D1C048F7
:101EB000006800F4806018B1E06808B9012076E796
:101EC000BB48406820F0FE40217C40EA0160B849F0
:101ED0004860B8480068FFF7DBFA18B3012066E7EE
:101EE000E06800B3B248006840F48070B049086010
:101EF000FFF7ACFA054606E0FFF7A8FA401B0228F8
:101F000001D9032053E7AA48006800F48060002844
:101F1000F2D0A748406820F0FE40217C40EA0160F2
:101F2000A349486016E0A248006820F48070A049E8
:101F30000860FFF78BFA054606E0FFF787FA401BBB
:101F4000022801D9032032E79948006800F4806034
:101F50000028F2D1207800F00800082836D1606906
:101F6000D0B193489430006840F001009049C1F826
:101F70009400FFF76BFA054606E0FFF767FA401B8F
:101F8000022801D9032012E789489430006800F044
:101F900002000028F1D019E085489430006820F054
:101FA00001008349C1F89400FFF750FA054606E0A6
:101FB000FFF74CFA401B022801D90320F7E67C48C2
:101FC0009430006800F002000028F1D1207800F081
:101FD0000400042872D14FF000087548806D01217B
:101FE00021EA107078B100BF7148806D40F08050D8
:101FF0006F4988650846806D00F08050009000BFF2
:1020000000BF4FF001086C48006800F48070B0B960
:102010006948006840F4807067490860FFF716FA65
:10202000054606E0FFF712FA401B022801D90320FB
:10203000BDE66148006800F480700028F2D000BF5F
:10204000A068012808D15A489030006840F001008B
:102050005749C1F8900021E0A06805280FD15448E5
:102060009030006840F004005149C1F890000846E3
:10207000D0F8900040F00100C1F890000EE04C480C
:102080009030006820F001004949C1F890000846EE
:10209000D0F8900020F00400C1F8900000BFA068C4
:1020A000A8B1FFF7D3F9054609E0FFF7CFF9401BC8
:1020B00041F28831884202D9032078E625E03C4885
:1020C0009030006800F002000028EED013E0FFF727
:1020D000BDF9054608E0FFF7B9F9401B41F2883128
:1020E000884201D9032062E631489030006800F050
:1020F00002000028EFD1B8F1010F05D12C48806D06
:1021000020F080502A49886500BF207800F0200028
:10211000202836D1A069D0B125489830006840F019
:1021200001002349C1F89800FFF790F9054606E041
:10213000FFF78CF9401B022801D9032037E61C4821
:102140009830006800F002000028F1D019E018482B
:102150009830006820F001001549C1F89800FFF799
:1021600075F9054606E0FFF771F9401B022801D911
:1021700003201CE60E489830006800F0020000289A
:10218000F1D1E069002860D00948806800F00C00B7
:102190000C287FD0E069022858D10548006820F05B
:1021A000807003490860FFF751F905460DE0000013
:1021B00000100240E411002000700040FFF746F9D3
:1021C000401B022801D90320F1E54D48006800F0CA
:1021D00000700028F2D1D4E90810401E41EA001135
:1021E000A06A41EA0021208E0122C2EB500041EAA0
:1021F00040513420005DC2EB500041EA40612C2088
:10220000005D41EAC0603E49C9683E4A114008434A
:102210003B49C8600846006840F080700860084686
:10222000C06840F08070C860FFF710F9054606E00E
:10223000FFF70CF9401B022801D90320B7E530480D
:10224000006800F000700028F2D056E02C480068CA
:1022500020F080702A4908600846C06820F003001A
:10226000C8600846C068284908402549C860FFF78B
:10227000EDF8054607E00DE0FFF7E8F8401B0228FF
:1022800001D9032093E51E48006800F00070002883
:10229000F2D132E0E069012800D188E51848C6682B
:1022A00006F00301206A814225D106F0F001606A40
:1022B000401EB1EB001F1ED106F4FE41A06AB1EB37
:1022C000002F18D106F078412C20005DB1EBC06FD3
:1022D00011D106F4C001208E0122C2EB5000B1EBF7
:1022E000405F08D106F0C0613420005DC2EB5000B1
:1022F000B1EB406F01D0012059E5002057E5000007
:10230000001002400C809F01FFFFEEFE70B50446F6
:102310002546681EB0F1807F01D301200FE0681EC2
:102320004FF0E02148610F214FF0FF3002F022FB17
:1023300000204FF0E021886107200861002070BD77
:1023400010B50346002200BF93F83C00012801D1DC
:10235000022010BD012083F83C0000BF22F0FF00E6
:10236000CC6840EA040222F440708C6840EA04021F
:1023700022F480604C6840EA040222F400600C6899
:1023800040EA040222F480500C6940EA040222F47C
:1023900000504C6940EA040222F480400C6B40EA91
:1023A000040222F470200C8B40EA04421C4C186892
:1023B000A04203D01B4C1868A04204D122F08050E8
:1023C000CC6940EA0402164C1868A04203D0154CB0
:1023D0001868A0421BD122F470000C8D40EA045210
:1023E00022F080700C6A40EA040222F000704C6A0D
:1023F00040EA04020A4C1868A04203D0094C18684D
:10240000A04204D122F00050CC6A40EA04021868CD
:10241000426400BF002083F83C0000BF00BF98E783
:10242000002C01400034014030B502460B4600BF8D
:1024300092F83C00012801D1022030BD012082F831
:102440003C0000BF022082F83D001068416810681F
:1024500084681D4D1068A84203D01C4D1068A84226
:1024600003D121F4700158680143194801401868EC
:10247000014310684160144D1068A84213D01068E1
:10248000B0F1804F0FD0134D1068A8420BD0124D01
:102490001068A84207D00D4D1068A84203D00F4D18
:1024A0001068A84205D124F080049868044310689D
:1024B0008460012082F83D0000BF002082F83C00CB
:1024C00000BF00BFB9E70000002C0140003401400C
:1024D0008FFFFFFD00040040000800400040014065
:1024E00010B504460CB9012010BD94F83D0028B980
:1024F000002084F83C00204600F02AF8022084F8EE
:102500003D00211D206801F03FFB012084F84800B8
:1025100000BF84F83E0001213F20015540200155B5
:1025200041200155422001554320015500BF00BF05
:10253000012084F8440045200155462001554720DC
:10254000015500BF012084F83D000020CCE70000C9
:1025500010B586B00446142101A8FDF791FE20684D
:10256000B0F1804F29D100BF1548806D40F00100C7
:10257000134988650846806D00F00100009000BF97
:1025800000BF00BF0846C06C40F00100C8640846A8
:10259000C06C00F00100009000BF00BF4FF400408D
:1025A00001900220029000200390049001200590E9
:1025B00001A94FF09040FEF74FFE06B010BD00009D
:1025C000001002402DE9F04104460D46164600BFBA
:1025D00094F83C00012802D10220BDE8F0810120DE
:1025E00084F83C0000BF96B9EB68D5E9001220687A
:1025F00001F0AAFD2068806920F00C002168886144
:1026000020688069A9680843216888613DE0042E3C
:1026100013D1EB68D5E90012206801F0E7FD2068CE
:10262000806920F440602168886120688069A96819
:1026300040EA01202168886127E0082E12D1EB686A
:10264000D5E90012206801F0EEFD2068C06920F095
:102650000C002168C8612068C069A9680843216826
:10266000C86112E0EB68D5E90012206801F0F7FDBF
:102670002068C06920F440602168C8612068C06992
:10268000A96840EA01202168C86100BF002084F8E1
:102690003C0000BF00BFA0E710B504460CB9012004
:1026A00010BD94F83D0028B9002084F83C00204675
:1026B00000F029F8022084F83D00211D206801F077
:1026C00063FA012084F8480000BF84F83E0001212D
:1026D0003F20015540200155412001554220015520
:1026E0004320015500BF00BF012084F8440045206D
:1026F0000155462001554720015500BF012084F8AF
:102700003D000020CCE770472DE9F04104460D461E
:1027100015B994F83E0015E0042D02D13F20005D6C
:1027200010E0082D02D14020005D0BE00C2D02D1FD
:102730004120005D06E0102D02D14220005D01E045
:102740004320005D074615B994F844000BE0042DC2
:1027500002D14520005D06E0082D02D14620005D33
:1027600001E04720005D8046012F02D1B8F1010F42
:1027700002D00120BDE8F0811DB9022084F83E009E
:102780001AE0042D03D102213F20015514E0082D49
:1027900003D10221402001550EE00C2D03D102216E
:1027A0004120015508E0102D03D10221422001559E
:1027B00002E00221432001551DB9022084F84400A3
:1027C0000EE0042D03D102214520015508E0082D1B
:1027D00003D102214620015502E002214720015584
:1027E00001222946206801F02DFA18492068884204
:1027F00013D02068B0F1804F0FD01549206888426F
:102800000BD014492068884207D0134920688842B9
:1028100003D012492068884210D12068806810498E
:1028200000EA0106062E0FD0B6F5803F0CD02068D6
:10283000006840F001002168086005E02068006839
:1028400040F0010021680860002093E7002C01405F
:1028500000040040000800400034014000400140F6
:102860000700010010B586B00446142101A8FDF749
:1028700007FD2149206888421CD100BF1F48C06C59
:1028800040F001001D49C8640846C06C00F001001A
:10289000009000BF00BF8020019002200290002025
:1028A000039004900620059001A94FF09040FEF798
:1028B000D3FC1FE01249206888421BD100BF0F489B
:1028C000C06C40F001000D49C8640846C06C00F0BF
:1028D0000100009000BF00BF402001900220029044
:1028E0000020039004900220059001A94FF0904031
:1028F000FEF7B2FC06B010BD002C014000100240F3
:102900000004004070B504460D46164600BF94F81A
:102910003C00012801D1022070BD012084F83C0058
:1029200000BF0C2E51D005DC4EB1042E1ED0082E57
:102930007AD133E0102E60D0142EF9D175E02946FB
:10294000206801F09BF92068806940F00800216848
:1029500088612068806920F004002168886120680F
:102960008069296908432168886177E029462068E1
:1029700001F0DAF92068806940F40060216888611C
:102980002068806920F480602168886120688069FF
:10299000296940EA0120216888615FE029462068B2
:1029A00001F01CFA2068C06940F008002168C86185
:1029B0002068C06920F004002168C8612068C069EF
:1029C000296908432168C86148E02946206801F068
:1029D0005FFA2068C06940F400602168C86120681F
:1029E000C06920F480602168C8612068C0692969D5
:1029F00040EA01202168C86130E02946206801F0E2
:102A0000A1FA2068006D40F0080021680865206880
:102A1000006D20F00400216808652068006D2969B8
:102A200008432168086519E017E02946206801F08D
:102A3000C1FA2068006D40F40060216808652068D4
:102A4000006D20F48060216808652068006D2969A8
:102A500040EA01202168086500E000BF00BF00BF18
:102A6000002084F83C0000BF00BF55E710B50446C5
:102A70000CB9012010BD94F83D0028B9002084F85D
:102A80003C00204600F02AF8022084F83D00211D79
:102A9000206801F079F8012084F8480000BF84F82C
:102AA0003E0001213F2001554020015541200155A4
:102AB000422001554320015500BF00BF012084F88A
:102AC000440045200155462001554720015500BFCF
:102AD000012084F83D000020CCE7000008B5124A30
:102AE000016891420DD100BF1049096E41F40061A7
:102AF0000E4A11661146096E01F40061009100BF93
:102B000011E00B4A016891420DD100BF0749896D60
:102B100041F00201054A91651146896D01F00201FB
:102B2000009100BF00BF08BD002C01400010024012
:102B30000004004070B504460D4615B994F83E00F7
:102B400015E0042D02D13F20005D10E0082D02D1D8
:102B50004020005D0BE00C2D02D14120005D06E01D
:102B6000102D02D14220005D01E04320005D0128CC
:102B700001D0012070BD1DB9022084F83E001AE08A
:102B8000042D03D102213F20015514E0082D03D16B
:102B90000221402001550EE00C2D03D102214120DD
:102BA000015508E0102D03D102214220015502E019
:102BB00002214320015501222946206801F042F8F4
:102BC0002749206888420FD02649206888420BD0C8
:102BD00025492068884207D024492068884203D0CC
:102BE00023492068884201D1012000E0002028B15B
:102BF0002068406C40F4004021684864184920680F
:102C0000884213D02068B0F1804F0FD01949206856
:102C100088420BD018492068884207D011492068A3
:102C2000884203D010492068884210D1206880680B
:102C3000124900EA0106062E0FD0B6F5803F0CD0EF
:102C40002068006840F001002168086005E0206805
:102C5000006840F001002168086000208AE7000059
:102C6000002C01400034014000400140004401407C
:102C70000048014000040040000800400700010037
:102C80000246002031B1042907D0082908D00C29B8
:102C90000CD108E01368586B09E01368986B06E0E4
:102CA0001368D86B03E01368186C00E000BF00BF26
:102CB000704770B504460D4600BF94F83C000128EB
:102CC00001D1022070BD012084F83C0000BF022029
:102CD00084F83D002946204601F0A4F948B10120BE
:102CE00084F83D0000BF002084F83C0000BF0120B4
:102CF000E8E72068C06820F040002168C8602068CC
:102D0000C06820F480402168C860012084F83D003C
:102D100000BF002084F83C0000BF00BFD2E701469E
:102D200000BF91F88000012801D1022070470120E6
:102D300081F8800000BF2420C1F884000868026880
:102D40000868006820F001000B68186022F000524B
:102D500000204866086802602020C1F8840000BF97
:102D6000002081F8800000BF00BFDFE77047704798
:102D700070B504460D4600BF94F88000012801D1CB
:102D8000022070BD012084F8800000BF2420C4F818
:102D90008400206806682068006820F0010021682F
:102DA00008602068806820F060602843216888609F
:102DB000204601F073FA206806602020C4F88400E1
:102DC00000BF002084F8800000BF00BFD9E770B5C5
:102DD00004460D4600BF94F88000012801D102206E
:102DE00070BD012084F8800000BF2420C4F8840056
:102DF000206806682068006820F0010021680860EB
:102E00002068806820F06040284321688860204660
:102E100001F044FA206806602020C4F8840000BF56
:102E2000002084F8800000BF00BFD9E770477047DA
:102E3000704700002DE9F04704462068C569206806
:102E400006682068876840F60F0005EA0009B9F1B6
:102E5000000F0FD105F0200060B106F0200010B97E
:102E600007F0805030B1206F10B12046216F8847A5
:102E7000BDE8F087B9F1000F7ED0AD48384018B9F1
:102E8000AC4830400028F7D005F0010058B106F4F6
:102E9000807040B1012021680862D4F88C0040F0B5
:102EA0000100C4F88C0005F0020058B107F00100E1
:102EB00040B1022021680862D4F88C0040F0040080
:102EC000C4F88C0005F0040058B107F0010040B1CF
:102ED000042021680862D4F88C0040F00200C4F895
:102EE0008C0005F0080070B106F0200010B9904881
:102EF000384040B1082021680862D4F88C0040F0C6
:102F00000800C4F88C0005F4006060B106F0806031
:102F100048B14FF4006021680862D4F88C0040F09A
:102F20002000C4F88C00D4F88C00002844D005F0B0
:102F3000200050B106F0200010B907F0805020B1F9
:102F4000206F10B12046216F8847D4F88CA02068EC
:102F5000806800F04000402802D00AF0280028B322
:102F6000204601F08BFA2068806800F0400040287D
:102F700018D12068806800E01FE020F04000216840
:102F80008860E06F50B16C48E16F8863E06FFEF7D6
:102F900004F988B1E06F816B88470DE02046FFF7A8
:102FA00047FF09E02046FFF743FF05E02046FFF713
:102FB0003FFF0020C4F88C005AE7E06E012879D169
:102FC00005F01000002875D006F01000002871D020
:102FD0001020216808622068806800F040004028C6
:102FE0003DD1E06F006840681FFA80F8B8F1000F2B
:102FF00034D0B4F85C00404530DDA4F85E80E06F6A
:103000000068006800F02000F8B92068006820F42B
:103010008070216808602068806820F001002168C5
:1030200088602068806820F0400021688860202047
:10303000C4F888000020E0662068006820F01000D6
:1030400021680860E06FFEF76DF8B4F85C00B4F832
:103050005E20801A81B22046FFF788FE08E734F828
:103060005C0F6188401A1FFA80F860885C3CF8B1F8
:10307000B8F1000F1CD02068006820F4907021681F
:103080000860206880682A49C94308402168886030
:103090002020C4F888000020E066206720680068CF
:1030A00020F010002168086041462046FFF75EFED0
:1030B000DEE6FFE705F4801050B107F4800038B178
:1030C0004FF48010216808622046FFF7B0FECFE67B
:1030D00005F0800058B106F0800010B907F4000038
:1030E00028B1606F10B12046616F8847C0E605F0D7
:1030F000400030B106F0400018B1204601F0DCF984
:10310000B6E605F4000030B106F0804018B1204664
:10311000FFF78CFEACE605F0807030B106F00040A1
:1031200018B12046FFF723FEA2E600BFA0E600008C
:1031300001000010200100046344000810B504469B
:103140000CB9012010BDA06900B100E000BFD4F8A7
:10315000840028B9002084F88000204600F02AF876
:103160002420C4F884002068006820F00100216851
:103170000860204601F0B2F9012800D1E2E7A06A18
:1031800010B1204601F0B6F82068406820F4904065
:10319000216848602068806820F02A0021688860E3
:1031A0002068006840F0010021680860204601F0B6
:1031B0001DF9C7E710B586B00446142101A8FDF734
:1031C0005FF81C492068884231D100BF1A48006E60
:1031D00040F48040184908660846006E00F48040BC
:1031E000009000BF00BF00BF0846C06C40F0010067
:1031F000C8640846C06C00F00100009000BF00BF2A
:103200004FF4C060019002200290002003900490CF
:103210000720059001A94FF09040FEF71DF800220D
:1032200011462520FEF796F92520FEF77FF906B016
:1032300010BD000000380140001002402DE9F84F99
:1032400004460E4617469A46D4F88800202873D1C3
:1032500006B117B90120BDE8F88F00BF94F88000CF
:10326000012801D10220F6E7012084F8800000BF88
:1032700000205C3420632220E06200202061FEF701
:10328000E5F88346278067805C3C00BFA068B0F506
:10329000805F0AD1206920B940F2FF10A4F86000D5
:1032A00020E0FF20A4F860001CE0A06848B9206975
:1032B00018B9FF20A4F8600014E07F20A4F8600093
:1032C00010E0A068B0F1805F09D1206918B97F20B3
:1032D000A4F8600006E03F20A4F8600002E00020AF
:1032E000A4F8600000BFB4F86090A068B0F5805FFB
:1032F00004D1206910B90025B04602E035464FF0F0
:10330000000800BF002084F8800000BF21E05B4679
:10331000002220212046CDF800A001F0A5FA08B136
:10332000032098E74DB92068406A00EA0900A8F830
:10333000000008F1020807E014E02068406A09F084
:10334000FF01084028706D1CB4F85E00401EA4F810
:103350005E00B4F85E000028D9D12020C4F88800AF
:10336000002078E7022076E72DE9F84F04460E4664
:1033700017469946D4F8840020285ED106B117B9C3
:103380000120BDE8F88F00BF94F88000012801D12A
:103390000220F6E7012084F8800000BF00205434AA
:1033A000A06321202063FEF751F8824627806780C2
:1033B000543CA068B0F5805F04D1206910B90025A5
:1033C000B04602E035464FF0000800BF002084F808
:1033D000800000BF1DE05346002280212046CDF82A
:1033E000009001F041FA08B10320CAE745B9B8F8E6
:1033F0000000C0F308002168886208F1020803E0B9
:103400002878216888626D1CB4F85600401EA4F824
:103410005600B4F856000028DDD153460022402162
:103420002046CDF8009001F01FFA08B10320A8E76C
:103430002020C4F884000020A3E70220A1E7704701
:1034400000BFFEE78168024A1140491C8160704755
:10345000C0FFFF7F0146886800F01F0070470246EA
:1034600002F1600000EB8103186800F0F84070473B
:1034700001468868C0F3C000704701468868C0F301
:10348000400070470146886800F00100704701461F
:10349000886800F00100704701468868C0F300703A
:1034A000704701468868C0F380007047014688680D
:1034B000C0F3800070470146C86800F4406008B956
:1034C000012070470020FCE78168024A1140091D75
:1034D00081607047C0FFFF7F70B500F11404C1F335
:1034E000406504EB85031C68C1F304560725B5400D
:1034F000AC43C1F3045502FA05F52C431C6070BDC2
:10350000826822F0E0720A438260704710B500F1D1
:10351000600404EB81031C6824F0004414431C6025
:1035200010BD426922F000420A4342617047000028
:1035300000B58BB00020089009900A9020216846C1
:10354000FCF79EFE4FF0A040284908604FF4403041
:103550004860002125488160C1600161012141610D
:10356000042181610121017700214177022101625B
:10357000002180F82410C162016380F838104FF4F4
:103580008051C163002180F84010FDF7F3FA08B1C3
:10359000FCF787FF0020089008A91448FCF7DCFF1F
:1035A00008B1FCF77EFF1248009006200190002031
:1035B00002907F200390042004900020059069462B
:1035C0000A48FDF74FF808B1FCF76BFF0948009077
:1035D0000C2001900520029069460448FDF742F84E
:1035E00008B1FCF75EFF0BB000BD0000F014002036
:1035F0000008302E2000F01400B589B0202101A869
:10360000FCF73EFE1B481C4908604FF44030486000
:10361000002119488160C16001614161042181611B
:1036200000210177417701210162002180F82410F7
:10363000C162016380F83810C16380F84010FDF763
:1036400099FA08B1FCF72DFF0C4801900620029072
:10365000002003907F200490042005900020069015
:1036600001A90548FCF7FEFF08B1FCF71AFF09B0F5
:1036700000BD0000000100505C1500200080F03EFD
:1036800000B587B0142102A8FCF7FAFD00BF54482A
:10369000C06C40F004005249C8640846C06C00F099
:1036A0000400019000BF00BF00BF0846C06C40F09E
:1036B0002000C8640846C06C00F02000019000BFE4
:1036C00000BF00BF0846C06C40F00100C864084657
:1036D000C06C00F00100019000BF00BF00BF0846B1
:1036E000C06C40F00200C8640846C06C00F00200E4
:1036F000019000BF00BF00BF0846C06C40F008004A
:10370000C8640846C06C00F00800019000BF00BF0C
:1037100000224FF6FF713348FDF792FE00224FF46E
:1037200080714FF09040FDF78BFE002204212E485F
:10373000FDF786FE00224FF478712C48FDF780FEDD
:103740004FF6FF7002900120039000200490059036
:1037500002A92448FDF780FD01200290002003907B
:10376000049002A94FF09040FDF776FD07200290EB
:1037700000200390049002A91C48FDF76DFD4FF452
:10378000807002900120039000200490059002A90F
:103790004FF09040FDF760FD04200290012003905F
:1037A00000200490059002A90F48FDF755FD4FF445
:1037B000487002900120039000200490059002A917
:1037C0000A48FDF749FDC020029011200390002017
:1037D0000490059002A90548FDF73EFD07B000BD25
:1037E0000010024000080048000C00480004004897
:1037F00000B597B000201490159016901C210DA8CC
:10380000FCF73EFD34216846FCF73AFD29482A4979
:103810000860A920486000212748816041F2873173
:10382000C1600021016141618161FFF71FF908B1A9
:10383000FCF737FE002014901590169014A91E482E
:10384000FEF7F2FD08B1FCF72CFE60200D904FF45E
:10385000FA700E9000200F9010901190129013901B
:1038600000220DA91448FFF74DF808B1FCF719FE26
:103870000020009001900290039004904FF40050BB
:10388000059000200690079008904FF00070099076
:1038900000200A900B904FF480400C906946064837
:1038A000FEF74EFD08B1FCF7FCFD0348FEF7DAFF1A
:1038B00017B000BD002C0140C815002000B58DB028
:1038C000142108A8FCF7DCFC002005900690079066
:1038D00001900290039004904FF0804025490860C9
:1038E000A9204860002123488160491EC160002151
:1038F00001618161FEF7F4FD08B1FCF7D2FD1D48BE
:10390000FEF7CAFE08B1FCF7CCFD04200890502059
:10391000099000200A900C9008A91648FFF7C9F9F1
:1039200008B1FCF7BEFD00200590079005A91148DD
:10393000FEF77AFD08B1FCF7B4FD002001900120EC
:103940000290002003900490002201A90948FEF78C
:1039500039FE08B1FCF7A5FD022001900290042277
:1039600001A90448FEF72EFE08B1FCF79AFD0DB040
:1039700000BD00001416002000B58BB00020089098
:1039800009900A901C2101A8FCF77AFC18481949F3
:103990000860A920486000211648816042F20F713A
:1039A000C160002101618161FFF760F808B1FCF797
:1039B00078FD002008900A9008A90E48FEF734FD13
:1039C00008B1FCF76EFD602001904FF47A70029010
:1039D000002003900590002201A90648FEF792FFFF
:1039E00008B1FCF75EFD0348FEF73CFF0BB000BDDD
:1039F000000400406016002010B5194819490860FD
:103A00004FF416504860002116488160C160016182
:103A10000C21416100218161C1610162416210207C
:103A20001049886201020F48C163FFF787FB08B1A4
:103A3000FCF737FD00210B48FFF7C9F908B1FCF787
:103A400030FD00210748FFF793F908B1FCF729FD85
:103A50000448FFF764F908B1FCF723FD10BD00002E
:103A600000380140AC16002000BFFEE700BFFEE7B3
:103A70007047000070B5164DED6805F00304144D55
:103A8000ED68C5F303156B1C022C0CD0032C09D177
:103A9000104DB5FBF3F50E4EF668C6F3062605FB92
:103AA00006F10AE000BF0C4DB5FBF3F5084EF668D1
:103AB000C6F3062605FB06F100BF00BF044DED6806
:103AC000C5F341656D1C6A00B1FBF2F070BD0000EA
:103AD0000010024000366E010024F400704710B55B
:103AE000FDF7BAFC10BD00B5A5B0382117A8FCF74A
:103AF000C7FB142112A8FCF7C3FB442101A8FCF763
:103B0000BFFB0020FDF778FD0120179000041890FE
:103B100002201E9003211F91062117A84162552102
:103B200081620221C16201634163FEF73BF908B182
:103B3000FCF7B7FC0F201290032013900020149084
:103B400015901690042112A8FDF7A4FF08B1FCF708
:103B5000A8FC48F201000190002002904FF00050B4
:103B6000109001A8FDF7DEFD08B1FCF79AFC25B026
:103B700000BD00000348006840F47000014908607F
:103B80007047000088ED00E010B50268264B9842AF
:103B90000BD0B0F1804F08D0244B984205D0244B75
:103BA000984202D0234B984203D122F070024B6816
:103BB0001A431D4B984214D0B0F1804F11D01B4BCB
:103BC00098420ED01A4B98420BD01A4B984208D00C
:103BD000194B984205D0194B984202D0184B984285
:103BE00003D122F44072CB681A4322F080034C695F
:103BF00043EA040202608B68C3620B6883620A4B6B
:103C000098420BD00B4B984208D00B4B984205D0F2
:103C10000A4B984202D00A4B984201D10B690363C8
:103C20000123436110BD0000002C0140000400404E
:103C300000080040003401400040014000440140C1
:103C40000048014030B501F01F05012404FA05F3D6
:103C5000046A9C430462046A01F01F0502FA05F538
:103C60002C43046230BD30B50C46816821F47F419D
:103C700042EA032525432943816030BD30B5056AFA
:103C800025F001050562026A43688469204D2C40D5
:103C900024F003040D682C4322F002028D682A43AD
:103CA0001C4DA84200D10FE01B4DA84200D10BE0F3
:103CB0001A4DA84200D107E0194DA84200D103E0F7
:103CC000184DA84206D100BF22F00802CD682A4351
:103CD00022F004020F4DA8420BD00F4DA84208D08D
:103CE0000E4DA84205D00E4DA84202D00D4DA8425F
:103CF00007D123F4807323F400734D692B438D693E
:103D00002B43436084614D684563026230BD00000F
:103D10008FFFFEFF002C01400034014000400140B5
:103D2000004401400048014030B5056A25F0100507
:103D30000562026A43688469224D2C4024F4407471
:103D40000D6844EA052422F020028D6842EA05123B
:103D50001D4DA84200D10FE01C4DA84200D10BE040
:103D60001B4DA84200D100BF1A4DA84200D100BF90
:103D7000194DA84207D106E022F08002CD6842EA40
:103D8000051222F04002104DA8420BD00F4DA84260
:103D900008D00F4DA84205D00E4DA84202D00E4DBE
:103DA000A84209D123F4806323F400634D6943EAF8
:103DB00085038D6943EA8503436084614D688563AB
:103DC000026230BDFF8FFFFE002C01400034014035
:103DD00000400140004401400048014030B5056A00
:103DE00025F480750562026A4368C469224D2C403F
:103DF00024F003040D682C4322F400728D6842EA1B
:103E000005221E4DA84200D10FE01D4DA84200D151
:103E10000BE01C4DA84200D100BF1B4DA84200D1B1
:103E200000BF1A4DA84207D106E022F40062CD6817
:103E300042EA052222F48062104DA8420BD0104DB8
:103E4000A84208D00F4DA84205D00F4DA84202D07D
:103E50000E4DA84209D123F4805323F400534D6939
:103E600043EA05138D6943EA05134360C4614D6855
:103E7000C563026230BD00008FFFFEFF002C0140D1
:103E8000003401400040014000440140004801402E
:103E900030B5056A25F480550562026A4368C46935
:103EA000224D2C4024F440740D6844EA052422F489
:103EB00000528D6842EA05321D4DA84200D10FE044
:103EC0001C4DA84200D10BE01B4DA84200D100BF01
:103ED0001A4DA84200D100BF194DA84207D106E0F3
:103EE00022F40042CD6842EA053222F48042104DAD
:103EF000A8420BD00F4DA84208D00F4DA84205D0C4
:103F00000E4DA84202D00E4DA84209D123F48043A1
:103F100023F400434D6943EA85138D6943EA851311
:103F20004360C4614D680564026230BDFF8FFFFECF
:103F3000002C014000340140004001400044014099
:103F40000048014030B5056A25F480350562026AF3
:103F50004368046D114D2C400D682C4322F400324F
:103F60000D8942EA05420E4DA8420BD00D4DA842E4
:103F700008D00D4DA84205D00C4DA84202D00C4DE2
:103F8000A84204D123F480334D6943EA05234360FA
:103F900004654D688564026230BD00008FFFFEFF3E
:103FA000002C014000340140004001400044014029
:103FB0000048014030B5056A25F480150562026AA3
:103FC0004368046D114D2C400D6844EA052422F429
:103FD00000120D8942EA05520D4DA8420BD00D4D3D
:103FE000A84208D00C4DA84205D00C4DA84202D0E2
:103FF0000B4DA84204D123F480234D6943EA852365
:10400000436004654D68C564026230BDFF8FFFFEEA
:10401000002C0140003401400040014000440140B8
:10402000004801402DE9F04105460C4628688668A5
:104030003848064060680643374806402068064313
:10404000286886606068602851D00EDC302857D020
:1040500006DC002851D0102850D0202856D14EE040
:1040600040281ED0502851D13BE02C4A811A904262
:1040700049D00ADC70280DD0B0F1101F41D0A0F556
:1040800080102038002841D13CE010293CD0402944
:104090003CD13AE0D4E90313A2682868FFF7E3FDB6
:1040A00035E02068052803D02068B0F1011F02D157
:1040B0000120BDE8F0812868D0F820802868006AD7
:1040C00020F00100296808622868876927F0F00756
:1040D000206947EA0017286887612868C0F82080AF
:1040E00015E02269A168286800F01AF80FE022693B
:1040F000A168286800F066F809E000BF00BF00BFB3
:1041000000BF00BF00BF00BF00BF00E000BF00BF96
:104110000020CEE78FFFCFFFF8FFFEFF300010003A
:1041200030B50B461446026A056A25F001050562A2
:10413000816921F0F00141EA041122F00A021A43D8
:104140008161026230BD000070B50C461546066AFA
:1041500026F0010606628169026A154EB0420ED051
:10416000B0F1804F0BD0134EB04208D0124EB04287
:1041700005D0124EB04202D0114EB04201D10126FC
:1041800000E000261EB121F00301294301E041F0C7
:10419000010121F0F001F02606EA0316314322F076
:1041A0000A0204F00A0632438161026270BD000017
:1041B000002C014000040040000800400034014091
:1041C0000040014030B50B461446056A25F0100545
:1041D00005628169026A21F4704141EA043122F0EA
:1041E000A00242EA03128161026230BD70B50C4642
:1041F0001546066A26F0100606628169026A21F4F5
:10420000407141EA052121F470414FF4704606EAFD
:104210000336314322F0A002A02606EA04163243F8
:104220008161026270BD70B50C461546066A26F4BF
:1042300080760662C169026A21F00301294321F0F8
:10424000F001F02606EA0316314322F420624FF40F
:10425000206606EA04263243C161026270BD70B571
:104260000C461546066A26F480560662C169026A43
:1042700021F4407141EA052121F470414FF4704668
:1042800006EA0336314322F420424FF4204606EA80
:1042900004363243C161026270BD000070B5456EE4
:1042A0002DB90125A0F86A50A0F868501CE0082339
:1042B00008240568AD68C5F342610568AD686A0FFA
:1042C0000A4DAD5C15FB04F5094EB65C95FBF6F5A1
:1042D000A0F86A50054D6D5C15FB03F5044E765C45
:1042E00095FBF6F5A0F8685070BD00002880000826
:1042F0003080000890F8281001F0010139B1016800
:10430000496821F40031C26A11430268516090F893
:10431000281001F00201022907D10168496821F43F
:104320008031026B11430268516090F8281001F04F
:104330000401042907D10168496821F48021426BF6
:1043400011430268516090F8281001F00801082913
:1043500007D10168496821F40041826B114302686A
:10436000516090F8281001F01001102907D1016860
:10437000896821F48051C26B11430268916090F802
:10438000281001F02001202907D10168896821F453
:104390000051026C11430268916090F8281001F0FE
:1043A0004001402913D10168496821F48011426C11
:1043B000114302685160416CB1F5801F07D101685B
:1043C000496821F4C001826C11430268516090F881
:1043D000281001F08001802907D10168496821F483
:1043E0000021C26C114302685160704738B5044621
:1043F0000020C4F88C00FDF729F805462068006805
:1044000000F0080008280CD16FF07E402B460022F7
:104410004FF400110090204600F026FA08B1032066
:1044200038BD2068006800F0040004280CD16FF04B
:104430007E402B4600224FF480010090204600F081
:1044400013FA08B10320EBE72020C4F88400C4F875
:1044500088000020E06600BF84F8800000BF00BF35
:10446000DEE770B50546AC6A0020A4F85E00A4F84B
:1044700056002046FEF7DCFC70BD000001680968AC
:1044800021F490710268116001688968094A11403D
:1044900002689160C16E012905D10168096821F0A7
:1044A0001001026811602021C0F888100021C16647
:1044B00001677047FEFFFFEF10B5044620680068F3
:1044C00020F04000216808602020C4F8840000200B
:1044D00060672046FEF7B3FF10BD00002DE9FE4FD8
:1044E000044600200290D6492068884200D100E0AE
:1044F00000BF2169A068084361690843E16940EA97
:10450000010820680068CF49084040EA0800216897
:1045100008602068406820F44050E1680843216842
:104520004860D4F81880C6492068884202D0206AC2
:1045300040EA080820688068C349084040EA08004B
:10454000216888602068C06A20F00F00616A084313
:104550002168C86200BFBD492068884216D1BC48A6
:10456000006800F0030030B1012808D0022804D010
:10457000032808D105E0012507E0022505E0042510
:1045800003E0082501E0102500BF6FE0B149206875
:10459000884216D1AE48006800F00C0030B1042803
:1045A00008D0082804D00C2808D105E0002507E031
:1045B000022505E0042503E0082501E0102500BFE1
:1045C00054E0A5492068884216D1A148006800F04F
:1045D000300030B1102808D0202804D0302808D16D
:1045E00005E0002507E0022505E0042503E0082595
:1045F00001E0102500BF39E098492068884216D1B3
:104600009348006800F0C00030B1402808D08028EE
:1046100004D0C02808D105E0002507E0022505E008
:10462000042503E0082501E0102500BF1EE08449B1
:104630002068884219D18648006800F4406048B17B
:10464000B0F5806F0AD0B0F5006F05D0B0F5406FBF
:1046500008D105E0002507E0022505E0042503E078
:10466000082501E0102500BF00E0102500BF7449B7
:10467000206888425DD135B1022D08D0042D08D0C4
:10468000082D0DD109E0FDF71DFB06460CE0744E28
:104690000AE0FDF73BFB064606E04FF4004603E068
:1046A00000260120029000BF00BF002E10D06D49EF
:1046B000606A31F81000B6FBF0F9606800EB40006A
:1046C000484503D860680003484502D201200290A3
:1046D000AAE06449606A31F810C06246002330469F
:1046E0001946FBF795FD4FF4807C00220B46A0FB9A
:1046F0000C1B03FB0CB300FB0233606840088C46C4
:104700001CEB000043EB0201CDE90001D4F804C02A
:1047100062460023FBF77CFD0746B7F5407F05D3D3
:10472000B7F5801F02D22068C7607DE001200290AB
:104730007AE0E069B0F5004F40D1092D17D2DFE8EB
:1047400005F005090D160F1616161300FDF7BAFA37
:10475000064610E0FDF7C8FA06460CE0404E0AE0B7
:10476000FDF7D4FA064606E04FF4004603E00026C3
:104770000120029000BF00BFFEB13A49606A31F8E3
:104780001000B6FBF0F04000616800EB5100B0FB98
:10479000F1F087B2102F0ED3B7F5803F0BD24FF652
:1047A000F07007EA000AC7F342004AEA000A2068EC
:1047B000C0F80CA038E00120029035E0092D17D296
:1047C000DFE805F005090D160F1616161300FDF7A4
:1047D00079FA064610E0FDF787FA06460CE0204E0F
:1047E0000AE0FDF793FA064606E04FF4004603E0C0
:1047F00000260120029000BF00BFAEB11949606AD7
:1048000031F81000B6FBF0F0616800EB5100B0FB2E
:10481000F1F087B2102F05D3B7F5803F02D22068A0
:10482000C76001E0012002900120A4F86A00A4F80A
:1048300068000020206760670298BDE8FE8F0000D6
:1048400000800040F369FFCFFFF4FF110038014002
:10485000881002400044004000480040004C0040E6
:104860000024F400108000082DE9F04104460D46B4
:1048700017469846069E4AE0701C002847D0FCF771
:10488000E5FDA0EB0800B04200D8C6B9206800687A
:1048900020F4D070216808602068806820F0010052
:1048A000216888602020C4F88400C4F8880000BF14
:1048B000002084F8800000BF0320BDE8F08120685C
:1048C000006800F0040010B32068C069C0F3C02085
:1048D000E8B14FF40060216808622068006820F4A5
:1048E000D070216808602068806820F0010021688D
:1048F00088602020C4F88400C4F88800C4F88C00C4
:1049000000BF002084F8800000BF0320D5E72068A6
:10491000C0692840A84201D1012000E00020B8422F
:10492000AAD00020C9E7000010B50248FEF782FABD
:1049300010BD0000AC16002000BFFEE70FB4084B0E
:1049400010B504A902AA039800F038F8044602A999
:10495000002000F0D4F9204610BC5DF814FB0000E4
:10496000FF4C000802480068C0F3022070470000B6
:104970000CED00E010B5002804DB0A07130E054A11
:10498000135406E00A07140E034A00F00F031B1F1E
:10499000D45410BD00E400E018ED00E002E008C8C7
:1049A000121F08C1002AFAD170477047002001E0A9
:1049B00001C1121F002AFBD1704700002DE9FF4FF3
:1049C0008BB088460546002606E025280BD0DDE999
:1049D0000D1290476D1C761C28780028F5D10FB079
:1049E0003046BDE8F08F0024A146A2460122AE4920
:1049F00000E0044315F8013F203B02FA03F00842AF
:104A0000F7D128782A2810D06FF02F022878A0F14B
:104A10003001092915D809EB890102EB410144F065
:104A2000020400EB01096D1CF0E758F8041B5FEA73
:104A3000010903D544F40054C9F1000944F002040B
:104A40006D1C28782E2817D115F8010F44F00404A6
:104A50002A280ED06FF02F022878A0F13001092902
:104A60000AD80AEB8A0102EB410100EB010A6D1C36
:104A7000F2E758F804AB6D1C28786C280FD006DCE0
:104A80004C2817D068280DD06A2814D104E0742867
:104A900010D07A280FD10DE044F400140AE044F459
:104AA000801401E044F440146978814202D104F595
:104AB00080146D1C6D1C2878692865D006DC0028E0
:104AC0008DD0632827D0642806D15DE06E2808D0F9
:104AD00073282AD0752877D0DDE90D129047761C0F
:104AE000E0E0C4F30250022809D003280DD0D8F822
:104AF000001004280DD00E6008F10408D2E0D8F8A8
:104B00000010F217C1E90062F6E7D8F800100E8035
:104B1000F2E70E70F0E718F8041B8DF80010002083
:104B20008DF80100EB46012003E058F804BB4FF07C
:104B3000FF3061074FF0000701D40AE07F1C5745A2
:104B40000DDA8742FADB1BF807100029F6D106E0E0
:104B50007F1C8742FCDB1BF807100029F8D1DDE938
:104B60000D23A9EB07008146214600F0B1F830443F
:104B7000C61904E0DDE90D121BF8010B90477F1EFA
:104B8000F8D22146484688E058F8040BC4F3025195
:104B90004FF00A0B032900D100B2042900D140B222
:104BA000002802DA40422D2102E0210505D52B2103
:104BB0008DF82410012104E006E0E10710D0202147
:104BC000F6E708AF089113E058F8040BC4F302515C
:104BD0004FF00A0B032900D180B2042900D1C0B2E2
:104BE0000021EEE75946FBF756FB303107F8011D6F
:104BF0000028F7D1ADEB070000F1200B600702D5CC
:104C000024F4803401E04FF0010ADA4502DDAAEB1A
:104C10000B0000E00020824600EB0B0108980144E5
:104C2000A9EB01000A90E00306D4DDE90D2321463B
:104C30000A9800F04DF806444FF0000908E009A971
:104C400011F80900DDE90D12904709F10109761C00
:104C500008998945F3DBE0030CD5DDE90D232146F6
:104C60000A9800F035F8064404E0DDE90D12302022
:104C70009047761CBAF10001AAF1010AF5DC05E0C3
:104C8000DDE90D1217F8010B9047761CBBF100010E
:104C9000ABF1010BF4DC0A982146DDE90D2300F0AD
:104CA00005F806446D1C97E6092801002DE9F0413E
:104CB000044600251E461746880404D405E03946FC
:104CC0002020B0476D1C641EF9D52846BDE8F08150
:104CD0002DE9F041044600251E469046C80301D543
:104CE000302700E02027880404D505E041463846F7
:104CF000B0476D1C641EF9D52846BDE8F0810A68EE
:104D0000531C0B6010707047A2B0FCF7B1FBFEF7AC
:104D1000EAFEFEF7B5FCFEF70BFCFEF76DFCFEF7B6
:104D200067FDFEF7CBFDFEF727FEFEF765FE00BF31
:104D30000221FE48FDF7FEFE00BF00BF0021FC4837
:104D4000FDF7E2FC0421FA48FDF7DEFC00BF00BFDE
:104D50000021F848FDF7EEFE00BF4FF47A70219075
:104D6000002020907F21F448FBF79EFB7F21F34831
:104D7000FBF79AFB00201F901E901D9001201C90B5
:104D800000BF00BF012201024FF09040FCF758FB2A
:104D900000224FF40071EA48FCF752FB0020E94979
:104DA000086000224FF48071E548FCF749FB0022BF
:104DB0002021E348FCF744FB01222021E048FCF7D6
:104DC0003FFB00BF00BF012211024FF09040FCF7F3
:104DD00037FB00224FF40071D948FCF731FB01206A
:104DE000D849086001220102D548FCF729FB0022BE
:104DF0002021D348FCF724FB01222021D048FCF7D6
:104E00001FFB00BF00BF012211024FF09040FCF7D2
:104E100017FB00224FF40071C948FCF711FB032077
:104E2000C849086000224FF48071C548FCF708FBB0
:104E300000222021C248FCF703FB01222021C048A8
:104E4000FCF7FEFA00BF00BF012211024FF09040B4
:104E5000FCF7F6FA00224FF40071B948FCF7F0FABB
:104E60001C9810B141F2080001E041F23000B54950
:104E7000086001221102B248FCF7E2FA0022202168
:104E8000AF48FCF7DDFA01222021AD48FCF7D8FA43
:104E900000BF00BF012211024FF09040FCF7D0FA92
:104EA00000224FF40071A648FCF7CAFA0720A54972
:104EB000086000224FF48071A148FCF7C1FA00227B
:104EC00020219F48FCF7BCFA012220219C48FCF7D6
:104ED000B7FA00BF00BF012211024FF09040FCF76B
:104EE000AFFA00224FF400719548FCF7A9FA40F29E
:104EF000731094490860012211029148FCF7A0FA4E
:104F0000002220218E48FCF79BFA012220218C48A8
:104F1000FCF796FA00BF00BF012211024FF090404B
:104F2000FCF78EFA00224FF400718548FCF788FAEE
:104F3000102084490860002201018148FCF780FAB2
:104F4000002220217E48FCF77BFA012220217C48A8
:104F5000FCF776FA00BF00BF012211024FF090402B
:104F6000FCF76EFA00224FF400717548FCF768FAFE
:104F700041F2900073490860012211027048FCF769
:104F80005FFA002220216E48FCF75AFA0122202104
:104F90006B48FCF755FA00BF00BF012211024FF029
:104FA0009040FCF74DFA00224FF400716448FCF782
:104FB00047FA11206349086000224FF4807160486D
:104FC000FCF73EFA002220215D48FCF739FA012265
:104FD00020215B48FCF734FA00BF00BF0122110218
:104FE0004FF09040FCF72CFA00224FF40071544827
:104FF000FCF726FA40F227205249086001221102EC
:105000004F48FCF71DFA002220214D48FCF718FA02
:10501000012220214A48FCF713FA00BF00BF0122F9
:1050200011024FF09040FCF70BFA00224FF4007190
:105030004348FCF705FA12204249086000224FF469
:1050400080713F48FCF7FCF9002220213C48FCF726
:10505000F7F9012220213A48FCF7F2F900BF00BF1E
:10506000012211024FF09040FCF7EAF900224FF4C0
:1050700000713348FCF7E4F91D2032490860012231
:1050800011022F48FCF7DCF9002220212C48FCF704
:10509000D7F9012220212A48FCF7D2F900BF00BF2E
:1050A000012211024FF09040FCF7CAF900224FF4A0
:1050B00000712348FCF7C4F96020224908600022EF
:1050C0004FF480711E48FCF7BBF9002220211C48D8
:1050D000FCF7B6F9012220211948FCF7B1F900BF0D
:1050E00000BF012211024FF09040FCF7A9F9002205
:1050F0004FF400711248FCF7A3F94FF41C5011490A
:105100000860012211020E48FCF79AF900222021C2
:105110000B48FCF795F9012220210948FCF790F98A
:1051200000BF00BF012211020EE00000C8150020E0
:105130001416002060160020F01400205C150020DA
:1051400000040048140800484FF09040FCF778F93C
:1051500000224FF40071FE48FCF772F96120FD490E
:10516000086000224FF48071F948FCF769F90022C9
:105170002021F748FCF764F901222021F448FCF7CC
:105180005FF900BF00BF012211024FF09040FCF711
:1051900057F900224FF40071ED48FCF751F9012056
:1051A000EC49086001220102E948FCF749F90022B4
:1051B0002021E748FCF744F901222021E448FCF7CC
:1051C0003FF900BFC820FCF733F800BF00BF00BFA5
:1051D000012211024FF09040FCF732F900224FF407
:1051E0000071DB48FCF72CF92020DA490860002226
:1051F000C100D748FCF724F900222021D448FCF74D
:105200001FF901222021D248FCF71AF900BF00BF84
:10521000012211024FF09040FCF712F900224FF4E6
:105220000071CB48FCF70CF90020CA490860012244
:105230001102C748FCF704F900222021C448FCF7FA
:10524000FFF801222021C248FCF7FAF800BF00BF96
:10525000012211024FF09040FCF7F2F800224FF4C7
:105260000071BB48FCF7ECF82120BA490860002225
:105270004FF48071B648FCF7E3F800222021B448CF
:10528000FCF7DEF801222021B148FCF7D9F800BF75
:1052900000BF012211024FF09040FCF7D1F800222C
:1052A0004FF40071AA48FCF7CBF80020A949086028
:1052B00001221102A648FCF7C3F800222021A448CD
:1052C000FCF7BEF801222021A148FCF7B9F800BF85
:1052D00000BF012211024FF09040FCF7B1F800220C
:1052E0004FF400719A48FCF7ABF822209949086006
:1052F00000224FF480719648FCF7A2F8002220218A
:105300009348FCF79DF8012220219148FCF798F87A
:1053100000BF4FF496300A9020E000BF0122110236
:105320004FF09040FCF78CF800224FF40071884851
:10533000FCF786F84FF6E071864801600122110201
:105340008348FCF77DF8002220218148FCF778F89B
:10535000012220217E48FCF773F800BF0A98401E06
:105360000A900028D9D100BF00BF1C9800287DD02A
:1053700001200A9009900A98ED3080B208900998AF
:1053800000F23D1080B207900898F02801DBEF2072
:1053900000E0089808900798B0F5A07F02DB40F283
:1053A0003F1000E0079807900A980690DAE000BFE7
:1053B000012211024FF09040FCF742F800224FF416
:1053C00000716348FCF73CF8202062490860002225
:1053D000C1005F48FCF734F8002220215C48FCF74C
:1053E0002FF8012220215A48FCF72AF800BF00BFFD
:1053F000012211024FF09040FCF722F800224FF4F6
:1054000000715348FCF71CF85249069808600122C5
:1054100011024F48FCF714F8002220214C48FCF7F9
:105420000FF8012220214A48FCF70AF800BF00BF0C
:10543000012211024FF09040FCF702F800224FF4D5
:1054400000714348FBF7FCFF212142480160002224
:105450004FF480713E48FBF7F3FF002220213C48C7
:10546000FBF7EEFF01222021394800E080E0FBF746
:10547000E7FF00BF00BF012211024FF09040FBF791
:10548000DFFF00224FF400713148FBF7D9FF099884
:10549000C0F5A070401E2F490860012211022C485F
:1054A000FBF7CEFF002220212948FBF7C9FF01228C
:1054B00020212748FBF7C4FF00BF00BF01221102D3
:1054C0004FF09040FBF7BCFF00224FF400712048E2
:1054D000FBF7B6FF22211F48016000224FF48071C4
:1054E0001B48FBF7ADFF002220211948FBF7A8FF5E
:1054F000012220211648FBF7A3FF00BF0998059061
:1055000023E000BF012211024FF09040FBF798FF0B
:1055100000224FF400710E48FBF792FF00200D4966
:105520000860012211020A48FBF78AFF00222021AD
:105530000748FBF785FF012220210548FBF780FF84
:1055400000BF0598401C80B205900799059803E0BC
:1055500000040048140800488842D2DD0698401C28
:1055600080B206900899069888427FF720AFF5E050
:1055700001200A9009900A9800F23D1080B208902C
:105580000998ED3080B207900898F02801DBEF20F1
:1055900000E0089808900798B0F5A07F02DB40F281
:1055A0003F1000E00798079009980690D0E000BFF0
:1055B000012211024FF09040FBF742FF00224FF40E
:1055C0000071FE48FBF73CFF2020FD4908600022E7
:1055D000C100FA48FBF734FF00222021F748FBF70F
:1055E0002FFF01222021F548FBF72AFF00BF00BF53
:1055F000012211024FF09040FBF722FF00224FF4EE
:105600000071EE48FBF71CFF0120ED490860012204
:105610000102EA48FBF714FF00222021E748FBF7CC
:105620000FFF01222021E548FBF70AFF00BF00BF62
:10563000012211024FF09040FBF702FF00224FF4CD
:105640000071DE48FBF7FCFE2120DD4908600022E6
:105650004FF48071D948FBF7F3FE00222021D74890
:10566000FBF7EEFE01222021D448FBF7E9FE00BF44
:1056700000BF012211024FF09040FBF7E1FE002233
:105680004FF40071CD48FBF7DBFECD49069808606A
:1056900001221102C948FBF7D3FE00222021C7488E
:1056A000FBF7CEFE01222021C448FBF7C9FE00BF54
:1056B00000BF012211024FF09040FBF7C1FE002213
:1056C0004FF40071BD48FBF7BBFE2220BC490860C7
:1056D00000224FF48071B948FBF7B2FE002220216E
:1056E000B648FBF7ADFE01222021B448FBF7A8FE27
:1056F00000BF0A98059023E000BF012211024FF07D
:105700009040FBF79DFE00224FF40071AB48FBF781
:1057100097FE0020AA49086001221102A748FBF762
:105720008FFE00222021A548FBF78AFE01222021BE
:10573000A248FBF785FE00BF0598401C80B205908B
:10574000089905988842D7DD0698401C80B20690DB
:10575000DDE9060188427FF72AAF00BF00BF0020C5
:105760001B9000BF01200A901BA8099001200890FF
:105770000020079000BF012280219048FBF760FEC7
:1057800000BF4FF4FA70069000BF0698411E0691C4
:105790000028FAD100BF012240218848FBF750FEC3
:1057A00000BF4FF4FA70069000BF0698411E0691A4
:1057B0000028FAD100BF002280218048FBF740FE7C
:1057C00000BF4FF4FA70069000BF0698411E069184
:1057D0000028FAD100BF002240217848FBF730FEB4
:1057E00000BF4FF4FA70069000BF0698411E069164
:1057F0000028FAD100BF00BF00BFA02006900820FB
:10580000059035E0002240216C48FBF719FE00BFEF
:105810004FF4FA70049000BF0498411E04910028D0
:10582000FAD100BF0698C0F3C01280216348FBF78D
:1058300007FE00BF4FF4FA70049000BF0498411EA9
:1058400004910028FAD100BF06984006000E069089
:10585000012240215948FBF7F3FD00BF4FF4FA70D5
:10586000049000BF0498411E04910028FAD100BFA3
:105870000598411EC9B205910028C3D100224021DC
:105880004E48FBF7DDFD00BF4FF4FA70049000BFF7
:105890000498411E04910028FAD100BF00BF00BF48
:1058A0000520069000BF142101A8FAF7E9FC80202A
:1058B000019000200290039001A94048FBF7CCFC26
:1058C00000BF00BF4FF4FA70059000BF0598411E5D
:1058D00005910028FAD100BF012240213748FBF78B
:1058E000AFFD00BF4FF4FA70059000BF0598411E50
:1058F00005910028FAD100BF6AE00698401EC0B2A8
:10590000069000BF4FF4FA70059000BF0598411E45
:1059100005910028FAD100BF0698E8BB00BF14210A
:1059200001A8FAF7ADFC8020019011200290002020
:105930000390049001A92148FBF78EFC00BF00BF33
:10594000002240211D48FBF77BFD00BF4FF4FA7099
:10595000059000BF0598411E05910028FAD100BFAF
:10596000002280211548FBF76BFD00BF4FF4FA7051
:10597000059000BF0598411E05910028FAD100BF8F
:10598000012240210D48FBF75BFD00BF4FF4FA7088
:10599000059000BF059800E01AE0411E059100281F
:1059A000F8D100BF012280210448FBF749FD00BF68
:1059B0004FF4FA70059000BF059803E0000400481A
:1059C00014080048411E05910028F5D100BF00BF12
:1059D0008021FC48FBF72CFD00288ED100BF14214C
:1059E00001A8FAF74DFC80200190112002900020C0
:1059F0000390049001A9F348FBF72EFC00BF00229E
:105A00004021F048FBF71CFD00BF4FF4FA700590F1
:105A100000BF0598411E05910028FAD100BF00BFC4
:105A200000BF0A9806900820059035E0002240212A
:105A3000E448FBF705FD00BF4FF4FA70049000BF87
:105A40000498411E04910028FAD100BF0698C0F3C3
:105A5000C0128021DB48FBF7F3FC00BF4FF4FA7063
:105A6000049000BF0498411E04910028FAD100BFA1
:105A700006984006000E069001224021D148FBF70F
:105A8000DFFC00BF4FF4FA70049000BF0498411E81
:105A900004910028FAD100BF0598411EC9B20591B2
:105AA0000028C3D100224021C648FBF7C9FC00BF33
:105AB0004FF4FA70049000BF0498411E049100282E
:105AC000FAD100BF00BF00BF0520069000BF14211F
:105AD00001A8FAF7D5FB80200190002002900390E6
