:020000040800F2
:1000000008040020ED010008E91800085F0200085C
:10001000E518000859020008431F0008000000000E
:10002000000000000000000000000000A11D00080A
:100030005D020008000000008D1C0008A31D0008E0
:10004000070200080702000807020008070200086C
:10005000070200080702000807020008070200085C
:10006000070200080702000807020008070200084C
:10007000070200080702000807020008070200083C
:10008000070200080000000007020008070200083D
:10009000070200080702000807020008070200081C
:1000A000070200080702000807020008070200080C
:1000B00007020008070200080702000807020008FC
:1000C00007020008070200080702000807020008EC
:1000D00007020008411F0008070200080702000885
:1000E00007020008070200080702000807020008CC
:1000F00007020008070200080702000800000000CD
:1001000000000000070200080000000007020008CD
:1001100007020008000000000702000807020008AC
:10012000070200080702000807020008070200088B
:10013000070200080000000000000000070200089D
:10014000070200080702000800000000000000008D
:10015000000000000000000000000000000000009F
:10016000000000000000000000000000070200087E
:10017000070200080000000000000000000000006E
:10018000000000000702000800000000000000005E
:10019000000000000000000000000000000000005F
:1001A000000000000000000007020008070200082D
:1001B000070200080702000807020008000000000C
:1001C000000000000702000800000000000000001E
:1001D0000702000807020008DFF80CD000F02AF838
:1001E00000480047651F00080804002006488047B3
:1001F00006480047FEE7FEE7FEE7FEE7FEE7FEE70C
:10020000FEE7FEE7FEE7FEE72D1F0008D901000824
:10021000D2B201E000F8012B491EFBD27047002248
:10022000F6E710B513460A4604461946FFF7F0FFF5
:10023000204610BD064C074D06E0E06840F0010383
:1002400094E8070098471034AC42F6D3FFF7C8FF94
:10025000A4200008C420000800BFFEE7704700BFCC
:10026000FEE700002DE9F04105460C4600266068D7
:1002700000B100BF4FF0A04000F04DF807460F4816
:1002800000F049F80743AFB9606860B1D4E90001F4
:100290000843A1680843E1680843A968084A114077
:1002A0000843A86007E0A86805490840216808439A
:1002B000A86000E001263046BDE8F0810001005052
:1002C000E030C0FF8168024A114081607047000041
:1002D000C0FFFF5F8168034A114041F08051816097
:1002E00070470000C0FFFF7F70B505460C46002632
:1002F000284600F010F858B9D4E900010843A16875
:100300000843E9684CF2180291430843E86000E0B2
:100310000126304670BD0146886800F00100704734
:1003200070B505460C460026606800B100BF28463F
:10033000FFF7F1FF20BB606870B1A1682068084337
:10034000E16808432169084361690843E9680E4A86
:1003500011400843E8600BE0E16820680843216928
:10036000084361690843E968074A11400843E860A7
:100370006068296B21F00F010143296300BF00E091
:100380000126304670BD00001CC0F0FF70B500F1C2
:100390003004C1F3012504EB85031C6801F01F063E
:1003A0001F25B540AC4301F01F06C2F38465B5407C
:1003B0002C431C6070BD70B500F11404C1F340659E
:1003C00004EB85031C68C1F304560725B540AC4314
:1003D000C1F3045502FA05F52C431C6070BD000002
:1003E00030B5D0F8B030C1F31204A34302F01805C1
:1003F000034CEC400C402343C0F8B03030BD00004B
:10040000FFFF0700D0F8C0206FF30D020A43C0F8C9
:10041000C020026922F4803209B1012300E00023E8
:1004200042EA034202617047026940F203439A4381
:100430000A4302617047000008B50549C96C0143D1
:10044000034AD1641146C96C0140009100BF08BD48
:100450000010024008B50549C96C0143034AD16444
:100460001146C96C0140009100BF08BD0010024058
:1004700008B50549C96C0143034AD1641146C96CEA
:100480000140009100BF08BD0010024008B50549B9
:10049000896D0143034A91651146896D01400091C0
:1004A00000BF08BD00100240F0B502460B461868B8
:1004B00090FAA0F0B0FA80F487E00120A0401D6817
:1004C00005EA000100297FD05868012802D0586849
:1004D00002281DD19868956891FAA1F6B6FA86F6B9
:1004E00077000326BE40B54391FAA1F6B6FA86F628
:1004F000760000FA06F63543956000BFDD6818689F
:100500005668864300FB05F73E43566000BF00BFB8
:100510001869D56891FAA1F6B6FA86F6770003262F
:10052000BE40B54391FAA1F6B6FA86F6760000FA17
:1005300006F63543D56000BF586802282DD1FF2943
:1005400014D85869156A91FAA1F6B6FA86F6B7007A
:100550000F26BE40B54391FAA1F6B6FA86F6B6006C
:1005600000FA06F63543156200BF16E05869556A71
:100570000E0A96FAA6F6B6FA86F6B7000F26BE4021
:10058000B5430E0A96FAA6F6B6FA86F6B60000FA53
:1005900006F63543556200BF00BF5868156891FAEA
:1005A000A1F6B6FA86F677000326BE40B54391FA67
:1005B000A1F6B6FA86F6760000FA06F6354315601F
:1005C00000BF00E000E000BF641C1868E0400028A5
:1005D0007FF473AFF0BD816270474FF47A71B0FB66
:1005E000F1F2521E4FF0E0235A6100229A61052277
:1005F0001A6100BF704700002DE9F0410446002554
:10060000C02C2CD100BF17480068204040EA0440AD
:10061000B0F5400F18D0A0F54000403820B1402878
:1006200006D080280FD108E001F06CFB054615E0EC
:1006300000F0B4F800B10C4D10E000F0B7F808B1CC
:100640004FF400450AE000BF01F05CFB074601F0F3
:100650001FFB064601F02EFB054600BF00BF2846E3
:10066000BDE8F081881002400024F4002DE9F0413B
:1006700004460025032C29D1204600F085F8B0F56A
:10068000403F18D06FF44031084420B1012806D013
:1006900002280FD108E001F035FB054615E000F017
:1006A0007DF800B1374D10E000F080F808B14FF44C
:1006B00000450AE000BF01F025FB074601F0E8FA1B
:1006C000064601F00BFB054600BF57E00C2C29D174
:1006D000204600F059F8B0F5402F18D0A0F5402082
:1006E000001F20B1042806D008280FD108E001F02F
:1006F00009FB054615E000F051F800B1214D10E06E
:1007000000F054F808B14FF400450AE000BF01F0D2
:10071000F9FA074601F0BCFA064601F0CBFA0546A5
:1007200000BF2BE0302C29D1204600F02DF8B0F589
:10073000401F18D0A0F54010103820B1102806D066
:1007400020280FD108E001F0DDFA054615E000F0A1
:1007500025F800B10B4D10E000F028F808B14FF477
:1007600000450AE000BF01F0CDFA074601F090FA1B
:10077000064601F09FFA054600BF00BF2846BDE8C7
:10078000F08100000024F40001460348006808409E
:1007900040EA0140704700008810024002480068AB
:1007A000C0F380207047000000100240024800683B
:1007B000C0F3400070470000901002400248C0683B
:1007C000C0F306207047000000100240034989680A
:1007D00021F0F0010143014A91607047001002408E
:1007E00001490860704700000000002010B5034672
:1007F0000A460021147B21469068014321F4806061
:10080000546840EA040121F40060146840EA0401DD
:1008100021F48050D48940EA040121F40050146985
:1008200040EA040121F48040D46A40EA040121F442
:100830000040D46A40EA04011648834202D01648B8
:10084000834209D121F47020546940EA040121F067
:100850008050946940EA04010E48834202D00E4859
:10086000834213D121F47000546A40EA040121F05C
:100870008070D46940EA040121F00070146A40EAF3
:10088000040121F00050946A40EA040159640020F8
:1008900010BD0000002C014000340140016821F02F
:1008A000800101607047816821F08001816070479C
:1008B000F0B503461446012901D1002525E004299D
:1008C00001D1012521E0102901D102251DE0402997
:1008D00001D1032519E0B1F5807F01D1042514E091
:1008E000B1F5806F01D105250FE0B1F5805F01D131
:1008F00006250AE0B1F5804F01D1072505E0B1F5E5
:10090000803F01D1082500E009252846084D2E5CCE
:1009100003F1180572191568064E375C0326BE40B0
:10092000B543260C034F3F5CBE4035431560F0BD18
:10093000FA1F00080E200008F0B5034614460129EE
:1009400001D1002525E0042901D1012521E010294C
:1009500001D102251DE0402901D1032519E0B1F59F
:10096000807F01D1042514E0B1F5806F01D1052508
:100970000FE0B1F5805F01D106250AE0B1F5804FA7
:1009800001D1072505E0B1F5803F01D1082500E040
:1009900009252846084D2E5C03F1180572191568C3
:1009A000064E375CF026BE40B543260C034F3F5C35
:1009B000BE4035431560F0BDFA1F00080E20000848
:1009C00070B5012901D1002425E0042901D10124B9
:1009D00021E0102901D102241DE0402901D1032486
:1009E00019E0B1F5807F01D1042414E0B1F5806FE6
:1009F00001D105240FE0B1F5805F01D106240AE0A2
:100A0000B1F5804F01D1072405E0B1F5803F01D158
:100A1000082400E009242346046A064DEE5C0A25FA
:100A2000B540AC43034DED5C02FA05F52C4304627E
:100A300070BD000018200008F0B5034614460129D7
:100A400001D1002525E0042901D1012521E010294B
:100A500001D102251DE0402901D1032519E0B1F59E
:100A6000807F01D1042514E0B1F5806F01D1052507
:100A70000FE0B1F5805F01D106250AE0B1F5804FA6
:100A800001D1072505E0B1F5803F01D1082500E03F
:100A900009252846084D2E5C03F1180572191568C2
:100AA000064E375C0C26BE40B543260C034F3F5C18
:100AB000BE4035431560F0BDFA1F00080E20000847
:100AC00010B502461368294882420BD0B2F1804F1C
:100AD00008D02748824205D02648824202D02648C4
:100AE000824204D123F070004C6840EA04031F489E
:100AF000824214D0B2F1804F11D01D4882420ED0F4
:100B00001C4882420BD01C48824208D01B488242BB
:100B100005D01B48824202D01A48824204D123F4F5
:100B20004070CC6840EA040313608868D06200BF5C
:100B30000888906200BF0D4882420BD00E48824266
:100B400008D00E48824205D00D48824202D00D489E
:100B5000824203D10869106300BF00BF00BF506923
:100B600040F00100506100BF002010BD002C01408A
:100B700000040040000800400034014000400140F3
:100B8000004401400048014070B50246012901D1EE
:100B9000002425E0042901D1012421E0102901D1FC
:100BA00002241DE0402901D1032419E0B1F5807F22
:100BB00001D1042414E0B1F5806F01D105240FE0C8
:100BC000B1F5805F01D106240AE0B1F5804F01D173
:100BD000072405E0B1F5803F01D1082400E0092495
:100BE0002346064CE55C02F1180428190468044DFC
:100BF000EE5C0425B540AC43046070BDFA1F0008EC
:100C00000420000870B50246012901D1002425E026
:100C1000042901D1012421E0102901D102241DE081
:100C2000402901D1032419E0B1F5807F01D10424CA
:100C300014E0B1F5806F01D105240FE0B1F5805FBC
:100C400001D106240AE0B1F5804F01D1072405E067
:100C5000B1F5803F01D1082400E009242346064C69
:100C6000E55C02F1180428190468044DEE5C0825BF
:100C7000B5402C43046070BDFA1F00080420000832
:100C80002DE9F04106460C4615460127B4F5805F74
:100C900021D007DC012C0CD0102C10D0B4F5807FB3
:100CA0002BD112E0B4F5803F1BD0B4F5801F24D1C6
:100CB0001DE02946304600F019FE07461EE0294691
:100CC000304600F065FE074618E02946304600F041
:100CD000B7FE074612E02946304600F003FF0746FC
:100CE0000CE02946304600F04FFF074606E0294653
:100CF000304600F08BFF074600E000BF00BF3846DB
:100D0000BDE8F081816370474268024B1A400A4394
:100D1000426070478FFFFFFDF8B504460D4601277E
:100D20000026204600F05EF800284ED12969A86808
:100D3000084369690843E96908432168244A114066
:100D400008432060E868616821F440510143616014
:100D500000BFA869A16821F440710143A16000BFF0
:100D60001C48844204D10320FFF780FC064616E0AD
:100D70001948844204D10C20FFF778FC06460EE0A7
:100D80001648844204D13020FFF770FC064606E086
:100D90001348844203D1C020FFF72EFC06465EB103
:100DA000686848B100276868009031462046EB69C2
:100DB0002A6800F01DF800BF2868E16A21F00F01E1
:100DC00082B21143E16200BF00BF3846F8BD0000A7
:100DD000F369FFEF00380140004400400048004044
:100DE000004C00400146086800F001007047000018
:100DF000F0B51D46059C0B2A26D82CB3B5F5004F3F
:100E000015D1D7B2DFF844C05CF82770B1FBF7F713
:100E10007F0007EB5407B7FBF4F7BBB24FF6F07750
:100E200003EA0706C3F342073E43C6600CE0D7B2AD
:100E3000DFF818C05CF82770B1FBF7F707EB540731
:100E4000B7FBF4F7BFB2C760F0BD00005C2000083C
:100E500010B594B0002011901290139018210BA897
:100E6000FFF7DDF900200790089009900A901821FB
:100E700001A8FFF7D4F94FF40050FFF7EBFA022076
:100E8000FFF7E8FA4FF48050019003200290002011
:100E9000059001A93B48FFF707FB4FF48040019004
:100EA000032002900020059001A93648FFF7FCFAC4
:100EB0000020119012904FF48040139011A94FF030
:100EC000A040FFF711FA00200B9001200C900020A9
:100ED0000D900E900F904FF4805010900BA94FF092
:100EE000A040FFF71DFA00214FF0A040FFF78AFA5B
:100EF00000214FF0A040FFF797FA4FF440300790E1
:100F00000020089007A92048FFF7ACF94FF0A04057
:100F1000FFF7D8F94FF0A040FFF7DCF91B48006855
:100F20001B49B0FBF1F000EB800080000A21B0FB10
:100F3000F1F400E0641E002CFCD1164A06214FF0AB
:100F4000A040FFF723FA002212494FF0A040FFF71C
:100F500032FA7F220F494FF0A040FFF741FA0E4AC4
:100F60000C214FF0A040FFF711FA05220A491007A3
:100F7000FFF721FA7F2208494FF0A040FFF730FA2F
:100F800014B010BD00040048000300500000002011
:100F9000400D03000008302E2000F01410B590B072
:100FA00000200D900E900F90182107A8FFF737F939
:100FB000182101A8FFF733F94FF40050FFF74AFA60
:100FC0000220FFF747FA4FF40040019003200290FF
:100FD0000020059001A92248FFF766FA00200D9035
:100FE0000E900F900DA91F48FFF77EF90020079083
:100FF000089009900A900B900C9007A91948FFF7E8
:101000008FF900211748FFF7FDF900211548FFF778
:101010000BFA1448FFF756F91248FFF75BF912482C
:1010200000681249B0FBF1F000EB800080000A215B
:10103000B0FBF1F400E0641E002CFCD10C4A062148
:101040000848FFF7A3F9002209490648FFF7B3F95A
:101050007F2207490348FFF7C3F910B010BD000015
:10106000000400480001005000000020400D030073
:101070000080F03E00B587B0182101A8FFF7CFF837
:101080000420FFF7D9F92020FFF7D6F90120FFF758
:10109000D3F90220FFF7D0F90820FFF7CDF94FF47C
:1010A0000051D848FFF797FA4FF48041D548FFF731
:1010B00092FA4FF40041D348FFF78DFA0121D1484D
:1010C000FFF789FA0221CF48FFF785FA0421CD48BE
:1010D000FFF781FA0821CB48FFF77DFA1021C948B4
:1010E000FFF779FA2021C748FFF775FA4021C54874
:1010F000FFF771FA8021C348FFF76DFA4FF4807152
:10110000C048FFF768FA4FF40071BE48FFF763FA72
:101110004FF480714FF09040FFF75DFA4FF480611B
:10112000B848FFF758FA4FF40061B648FFF753FA92
:101130004FF48051B348FFF74EFA0421B248FFF74D
:101140004AFA2021B148FFF746FA4021AF48FFF79D
:1011500042FA8021AD48FFF73EFA4FF48071AB4868
:10116000FFF739FA4FF40071A848FFF734FA4FF44B
:1011700000500190012002900020039004900590FF
:1011800001A9A048FFF790F94FF480400190012099
:101190000290002003900490059001A99948FFF760
:1011A00083F94FF400400190012002900020039049
:1011B0000490059001A99348FFF776F9012001906A
:1011C0000290002003900490059001A98D48FFF73C
:1011D0006BF90220019001200290002003900490FE
:1011E000059001A98748FFF75FF9042001900120CD
:1011F0000290002003900490059001A98148FFF718
:1012000053F90820019001200290002003900490DF
:10121000059001A97B48FFF747F9012001900020C4
:101220000290059001A94FF09040FFF73DF9102082
:10123000019001200290002003900490059001A9E4
:101240007048FFF731F92020019001200290002022
:1012500003900490059001A96A48FFF725F9012041
:10126000019000200290059001A96848FFF71CF941
:101270000220019000200290059001A96348FFF729
:1012800013F90420019000200290059001A95F4805
:10129000FFF70AF9402001900120029000200390FE
:1012A0000490059001A95748FFF7FEF880200190AF
:1012B00001200290002003900490059001A951485C
:1012C000FFF7F2F84FF480700190012002900020A7
:1012D00003900490059001A94A48FFF7E5F84FF400
:1012E000007001900120029000200390049005906E
:1012F00001A94448FFF7D8F84FF48070019001200D
:101300000290002003900490059001A94FF09040B6
:10131000FFF7CAF84FF4806001900120029000208E
:1013200003900490059001A93648FFF7BDF84FF4EB
:10133000006001900120029000200390049005902D
:1013400001A93048FFF7B0F84FF480500190012018
:101350000290002003900490059001A92948FFF70E
:10136000A3F8042001900120029000200390049033
:10137000059001A92448FFF797F82020019001204B
:101380000290002003900490059001A91F48FFF7E8
:101390008BF8402001900120029000200390012052
:1013A00004900020059001A91848FFF77DF88020DF
:1013B0000190012002900020039001200490002061
:1013C000059001A91148FFF76FF84FF48070019064
:1013D00001200290002003900490059001A90B4881
:1013E000FFF762F84FF40070019001200290002096
:1013F00003900490059001A90448FFF755F807B041
:1014000000BD000000080048000C0048000400482F
:1014100000B5A1B014211CA8FEF701FF202114A8DB
:10142000FEF7FDFE302108A8FEF7F9FE182102A8FC
:10143000FEF7F5FE4FF400603B49096E01433A4A5E
:1014400011661146096E0140019100BF00BFA9203D
:10145000ADF8700000201D9041F287301E900020F2
:101460001F9020901CA93148FFF72AFB2F48FFF757
:1014700015FA01212D48FFF7C5FB602014900020CC
:10148000159016904FF4FA7017900020189019904C
:101490001A901B9014AA01212448FFF7F1FB0121A7
:1014A0002248FFF771FB00212048FFF72DFC0020A8
:1014B0001E49496821F4700101431C4A516000BF74
:1014C0001046FFF7F0F90020089009900A908DF877
:1014D0002C00ADF82E004FF400500C9000200D9021
:1014E0000E900F904FF0007010900020119012900D
:1014F0004FF48040139008A90C48FFF777F90120BA
:10150000FEF7B6FF80200290022003900020049096
:10151000059006900620079002A94FF09040FEF734
:10152000C3FF21B000BD000000100240002C0140AC
:1015300000B58BB0142106A8FEF771FE182168468D
:10154000FEF76DFE0120FEF7A1FF0120FEF790FFE0
:101550004FF4004000900220019000200290039080
:1015600004900120059069464FF09040FEF79CFFE3
:10157000A920ADF8180000200790401E0890002018
:10158000099006A94FF08040FFF79AFA4FF080408B
:10159000FFF784F95020810689682A4A11400143E7
:1015A0008206916000BF042001078968264A114025
:1015B00001430207916000BF002201210007FFF7ED
:1015C000BBF9002201218807FFF7FAF900BF4FF0AD
:1015D0008040C06820F040004FF08041C86000BFEC
:1015E00000BF0846C06820F48040C86000BF0021EA
:1015F0004FF08040FFF788FB4FF08040FFF753F932
:101600004FF4803201218807FFF752F900220121AF
:101610008807FFF711FA4FF4003210218806FFF710
:1016200047F9002210218806FFF706FA0022102150
:101630008806FFF781F9022210218806FFF7C0F91A
:101640000BB000BD8FFFCFFFF8FFFEFF00B593B0DA
:1016500014210EA8FEF7E3FD202106A8FEF7DFFD0A
:1016600018216846FEF7DBFD0220FEF70FFFA920D8
:10167000ADF8380000200F9042F20F70109000205B
:1016800011900EA91B48FFF71BFA1A48FFF706F93D
:1016900001211848FFF7B6FA602006900020079055
:1016A00008904FF47A70099000200A9006AA012150
:1016B0001048FFF7E5FA01210E48FFF765FA00210F
:1016C0000C48FFF721FB0B48FFF7EDF80120FEF770
:1016D000CFFE402000900220019000200290039055
:1016E00004900220059069464FF09040FEF7DCFE22
:1016F00013B000BD000400402DE9F04190B020215E
:1017000008A8FEF78CFD182102A8FEF788FD4FF40B
:1017100080407049096E01436E4A11661146096E98
:101720000140019100BF00BF01201146C96C014377
:10173000D1641146C96C0140019100BF00BF400255
:10174000029002200390002004900590069007204C
:10175000079002A94FF09040FEF7A6FE4FF480607C
:10176000029002200390002004900590069007202C
:10177000079002A94FF09040FEF796FE2521564BA8
:101780001B68C3F30220002425460346C3F1070C5F
:10179000BCF1040F02D94FF0040C01E0C3F1070CB7
:1017A000674603F1040CBCF1070F02D24FF0000CA6
:1017B00001E0A3F1030C66464FF0010C0CFA07FCA4
:1017C000ACF1010C0CEA040C0CFA06FC4FF0010819
:1017D00008FA06F8A8F1010808EA05084CEA080228
:1017E00000BF002904DB1007030E3C48435407E008
:1017F0001007040E38480C3001F00F031B1FC454AF
:1018000000BF252000280DDB00BF00BF00F01F0235
:10181000012191404209920002F1E022C2F8001138
:1018200000BF00BF00BF002008904FF41650099081
:1018300000200A900B900C900C200D9000200E9030
:101840000F9008A92648FFF767FA00202449896805
:1018500060F35F71224A916000BF00BF1146896842
:1018600021F0606141EA4061916000BF00BF104615
:10187000006820F000501146086000BF00BF084615
:10188000806840F48050886000BF00BF0846406810
:1018900020F4904048600846806820F02A00886064
:1018A00000BF00BF0846006840F00100086000BFAC
:1018B00000BF00BF0A48C069C0F340500028F8D0FC
:1018C00000BF0748C069C0F380500028F1D010B0B5
:1018D000BDE8F081001002400CED00E000E400E003
:1018E0000038014000BFFEE700BFFEE770B50246CA
:1018F000106A20F001001062136A5568946924F0A0
:1019000003041D4E04EA06000E6840EA060423F0B4
:1019100002000E6940EA060323F001004E6840EA27
:101920000603164882420BD01548824208D015485B
:10193000824205D01448824202D01448824213D118
:1019400023F008004E6940EA860323F004008E6805
:1019500040EA860325F480708E6940EA060525F486
:101960000070CE6940EA460555609461C8685063CE
:1019700000BF1362002070BD8FFFFEFF002C0140EE
:101980000034014000400140004401400048014053
:101990002DE9F04104460D46206A20F01000206237
:1019A000266AD4F80480A76927F440771E48384097
:1019B000296840EA012726F02000296940EA01163B
:1019C00026F01000696840EA0116184884420BD0DE
:1019D0001748844208D01748844205D016488442EC
:1019E00002D01648844213D126F08000696940EA8B
:1019F000811626F04000A96840EA811628F480602C
:101A0000A96940EA810828F40060E96940EAC10850
:101A1000C4F80480A7612046E968FFF773F92662DD
:101A20000020BDE8F0810000FF8FFFFE002C014088
:101A300000340140004001400044014000480140A2
:101A400070B50246106A20F480701062136A5568FF
:101A5000D46924F003041D4E04EA06000E6840EA2F
:101A6000060423F400700E6940EA062323F4807014
:101A70004E6840EA0623164882420BD0154882423F
:101A800008D01548824205D01448824202D014483A
:101A9000824213D123F400604E6940EA862323F486
:101AA00080608E6840EA862325F480508E6940EA83
:101AB000061525F40050CE6940EA46155560D461FC
:101AC000C868D06300BF1362002070BD8FFFFEFFA7
:101AD000002C01400034014000400140004401401E
:101AE0000048014070B50246106A20F48050106230
:101AF000136A5568D46924F440741D4820400E6868
:101B000040EA062423F400500E6940EA063323F429
:101B100080504E6840EA0633164882420BD0164881
:101B2000824208D01548824205D01548824202D030
:101B30001448824213D123F400404E6940EA8633B0
:101B400023F480408E6840EA863325F480408E6915
:101B500040EA861525F40040CE6940EAC615556076
:101B6000D461C868106400BF1362002070BD00001B
:101B7000FF8FFFFE002C0140003401400040014077
:101B8000004401400048014030B50246106A20F48C
:101B900080301062136A146D164D04EA05000D685A
:101BA00040EA050423F400300D8A40EA054323F49B
:101BB00080308D8840EA05430F4882420BD00F48A1
:101BC000824208D00E48824205D00E48824202D09E
:101BD0000D48824206D1506820F480308D6940EA79
:101BE000052050601465C868956C906400BF13624E
:101BF000002030BD8FFFFEFF002C0140003401406B
:101C000000400140004401400048014030B5024618
:101C1000106A20F480101062136A146D1548204079
:101C20000D6840EA052423F400100D8A40EA0553AC
:101C300023F480108D8840EA05530F4882420BD070
:101C40000E48824208D00E48824205D00D4882429A
:101C500002D00D48824206D1506820F480208D6960
:101C600040EA852050601465C868D06400BF1362E4
:101C7000002030BDFF8FFFFE002C014000340140EA
:101C8000004001400044014000480140704700000E
:101C9000014600BF0548806800F0F0000009044AD2
:101CA000105C00F01F0221FA02F0704700100240A1
:101CB0008C200008014600BF0648806800F4E06000
:101CC000054A02EB1020007800F01F0221FA02F012
:101CD00070470000001002409C200008014600BF31
:101CE0000648806800F46050054A02EBD020007876
:101CF00000F01F0221FA02F07047000000100240BD
:101D00009C20000810B500BF0A49896801F00C0149
:101D1000042904D0082904D00C2907D103E006487F
:101D200006E0064804E000F00BF801E0024800BFBE
:101D300000BF10BD001002400024F40000366E0108
:101D400070B500BF1348C06800F003000546022DBF
:101D500002D0032D04D101E00F4C03E00F4C01E051
:101D60000D4C00BF00BFFEF729FD60430949C9685B
:101D700001F0F001012202EB1111B0FBF1F1054875
:101D8000C06800F0C06002EB50604000B1FBF0F0B2
:101D900070BD0000001002400024F40000366E0107
:101DA0007047704770B504205849096821F00F0149
:101DB0000143564A116000BF00BF00BF534800688E
:101DC00000F00F000428F8D100BF5148006820F44B
:101DD00080704F498039C1F8800000BF00BF4D4876
:101DE000006840F480304B49086000BF00BF00BF6E
:101DF00048480068C0F340400028F8D00320502134
:101E00005522002340EA010444EA02241C43414DC8
:101E1000ED68414E35402C433E4DEC6000BF00BFA5
:101E20002846C06840F080702946C86000BF00BFE7
:101E30000846006840F08070086000BF00BF00BF27
:101E400034480068C0F340600028F8D003203149CE
:101E5000896821F0030101432E4A916000BF802070
:101E6000FEF7B4FC00BF00BF2A48806800F00C00F9
:101E70000C28F8D12948006840F080702749086094
:101E80002748006840F001002549086000204860AC
:101E900000BF234840686428FBD30020FEF796FC6F
:101EA00000201C49896821F4E0610143194A9160CE
:101EB00000BF00BF1146896821F460510143916061
:101EC00000BF1848FEF789FB1648FEF789FC4FF45F
:101ED000403010498831096821EA104182B211432B
:101EE0000C4AC2F8881000BF0F480A4988310968B7
:101EF000030C03229A409143C2B2030C9A4011434F
:101F0000044AC2F8881000BF70BD000000200240E3
:101F100080700040001002400C80FFF9FCED00E0F2
:101F2000001000E080FE210A02001C000348006847
:101F300040F47000014908607047000088ED00E03F
:101F4000704700BFFEE702E008C8121F08C1002A60
:101F5000FAD170477047002001E001C1121F002A2A
:101F6000FBD1704708B501201E49096E01431D4A87
:101F700011661146096E0140009100BF00BF0007C5
:101F80001146896D014391651146896D01400091AB
:101F900000BF00BF03200246134B19684FF6FF0332
:101FA0001940124B0B4343EA02210F4B196000BF4B
:101FB00000BF0F48806840F480400D49886000BF32
:101FC000FFF7F0FEFFF756F8FEF742FFFEF7E6FFD9
:101FD000FFF71EFAFFF7ACFAFFF738FBFFF78CFBB1
:101FE00000BFFEE7001002400CED00E00000FA0523
:101FF00000700040081C3044586C000000000404CD
:102000000404383800000800000008000008000040
:10201000080000000800000000020406080A0C0E78
:1020200010140001020304050607080A010000005D
:10203000020000000400000006000000080000008C
:102040000A0000000C00000010000000200000004A
:1020500040000000800000000001000001000000BE
:10206000020000000400000006000000080000005C
:102070000A0000000C00000010000000200000001A
:10208000400000008000000000010000000000008F
:102090000000000001020304060708090000000018
:1020A00001020304C4200008000000200400000016
:1020B000461F0008C8200008040000200404000097
:0820C000561F00080024F40083
:04000005080001D915
:00000001FF
